:100000000C9436010C947D0F0C94560F0C94061230
:100010000C94AF120C948B120C945E010C945E0144
:100020000C945E010C945E010C945E010C945E01D4
:100030000C945E010C945E010C945E010C945E01C4
:100040000C94541A0C945E010C9410100C94EA0F4A
:100050000C945E010C945E010C945E010C945E01A4
:100060000C945C100C945E0100407A10F35A00A0CE
:10007000724E18090010A5D4E80000E87648170071
:1000800000E40B54020000CA9A3B000000E1F505B1
:10009000000080969800000040420F000000A086FB
:1000A00001000000102700000000E803000000002D
:1000B0006400000000000A000000000001000000D1
:1000C00000002C76D888DC674F0823DFC1DFAE59EB
:1000D000E1B1B796E5E3E453C63AE651997696E87E
:1000E000E6C28426EB898C9B62ED407C6FFCEFBC02
:1000F0009C9F40F2BAA56FA5F490055A2AF75C932D
:100100006B6CF9676DC11BFCE0E40D47FEF520E662
:10011000B500D0ED902E0300943577050080841E45
:10012000080000204E0A000000C80C333333330FA0
:10013000986E12831141EF8D2114893BE65516CF3D
:10014000FEE6DB18D1844B381BF77C1D901DA4BB49
:10015000E424203284725E228100C9F124ECA1E5FE
:100160003D277C3C3E5E2B3D3F2F5B5D3B2C2A2296
:100170005C0000C201000100110011000C0000E150
:1001800000000A002500250021000096000019004B
:10019000390039003600127A00001F004600460080
:1001A00044008070000022004D004D004A00004BCA
:1001B00000003600750075007200403800004A00EB
:1001C0009C009C009900802500007200EC00EC006F
:1001D000E900C0120000E900DA01DA01D701600984
:1001E0000000D701B603B603B303B0040000B303A5
:1001F0006E076E076B07580200006E07DC0EDC0E00
:10020000D80E2C010000DC0EC11DC11DBE1D00005A
:10021000000023002600290000000000250028001F
:100220002B00040404040404040402020202020277
:1002300003030303030301020408102040800102AA
:10024000040810200102040810200000000024000F
:1002500027002A0000000008000201000003040734
:1002600000000000000000006C229E1A11241FBE36
:10027000CFEFD8E0DEBFCDBF12E0A0E0B1E0EEE10D
:10028000FCE502C005900D92AA39B107D9F727E025
:10029000AAE9B2E001C01D92A632B207E1F711E06F
:1002A000C5E3D1E004C02197FE010E94C127C433F9
:1002B000D107C9F70E94D91A0C94022E0C940000A1
:1002C000DC015996ED91FC915A973097B9F08389EA
:1002D0009489A589B6894285538564857585841B73
:1002E000950BA60BB70B811520E89207A105B10568
:1002F00038F08FEF9FE7A0E0B0E0089580E090E055
:100300000895CF93DF931F92CDB7DEB76983DC01E9
:10031000ED91FC910280F381E02D41E050E0BE01BF
:100320006F5F7F4F09950F90DF91CF9108950895EA
:1003300080E090E008958091AE029091AF02A0918C
:10034000B002B091B1020196A11DB11D8093AE0221
:100350009093AF02A093B002B093B10208953F9280
:100360004F925F926F927F928F929F92AF92BF92C5
:10037000CF92DF92EF92FF920F931F93CF93DF9371
:10038000CDB7DEB72C970FB6F894DEBF0FBECDBF4A
:100390005C01DC015B968D909C905C971696CD90ED
:1003A000DD90ED90FC901997C114D104E104F104A3
:1003B00039F0BFEFCB1ADB0AEB0AFB0A312C07C07E
:1003C000F401C080D180E280F38033243394F401BF
:1003D00081859285A385B4859C01AD012F5F3F4F38
:1003E0004F4F5F4F29873A874B875C87260137013C
:1003F0001D821E821F821886F40181859285A38545
:10040000B4852D813E814F815885281739074A07C9
:100410005B0708F063C089859A85AB85BC858C1520
:100420009D05AE05BF0550F482E0C82ED12CE12C0D
:10043000F12C92E0492E512C612C712C9E012F5FE2
:100440003F4FB701A601C4010E947413882309F429
:1004500045C089819A81AB81BC81892B8A2B8B2BEA
:1004600041F0260137019FEF491A590A690A790AB2
:1004700005C0C414D504E604F70491F02D813E8133
:100480004F8158852F5F3F4F4F4F5F4F2D833E83E6
:100490004F8358873FEFC31AD30AE30AF30AACCF5E
:1004A0000FEF1FEF2FEF3FE0B301A201C4010E9445
:1004B000D312882399F0D50116964D915D916D91D7
:1004C0007C911997411551056105710549F093011A
:1004D0008201C4010E94D312811102C080E02AC0AF
:1004E000D50116964D925D926D927C9219973320AC
:1004F00051F0D301C2010196A11DB11DF401808309
:100500009183A283B383F5018789908DA18DB28DEC
:10051000892B8A2B8B2B69F4D50157964D925D92CE
:100520006D927C925A9714968C91149780681496C9
:100530008C9381E02C960FB6F894DEBF0FBECDBF32
:10054000DF91CF911F910F91FF90EF90DF90CF90AF
:10055000BF90AF909F908F907F906F905F904F90E3
:100560003F9008958F929F92AF92BF92CF92DF9269
:10057000EF92FF920F931F93CF93DF93EC018D8146
:10058000811102C080E078C00B891C892D893E89C9
:100590000417150726073707A8F36A017B01823085
:1005A00029F4CA86DB86EC86FD860DC0C114D10411
:1005B000E104F10451F41E821F82188619861A86FE
:1005C0001B861C861D8681E057C08A849B84AC8470
:1005D000BD84EB8DFC8D258530E0275F3F4FB50155
:1005E000A4014150510961097109022E04C0769598
:1005F0006795579547950A94D2F7D701C601019799
:10060000A109B10904C0B695A795979587952A9534
:10061000D2F784179507A607B70720F089288A28FC
:100620008B2871F44F89588D698D7A8D4E835F8345
:10063000688779874C015D018E010A5F1F4F16C0E4
:10064000841B950BA60BB70BF5CF4E815F81688598
:10065000798598018B8D9C8D0E94741391E0891A85
:100660009108A108B108882309F48CCF8114910462
:10067000A104B10451F795CFDF91CF911F910F9154
:10068000FF90EF90DF90CF90BF90AF909F908F90B2
:10069000089561E0FC0184810C9485198091AB027E
:1006A0008F3F39F48EBD00000DB407FEFDCF8EB52F
:1006B0000895F894E091A602F091A70290818091AC
:1006C000A502892B808328E080E0E091A902F091C7
:1006D000AA0230819091A802392B3083880FA09113
:1006E000A302B091A4024C913091A202342309F0EC
:1006F0008160308190959323908300000000215009
:1007000021F7789408950F931F93CF93DF93EB0114
:100710000E94481A8B010E944E038F3F49F00E94AD
:10072000481A601B710B6C177D07A8F380E001C0AD
:1007300081E0DF91CF911F910F910895CF93DF93C7
:10074000EC018E81882389F08F8198859C012F5F31
:100750003F4F38872F838230924018F40E944E0317
:10076000F3CFCE010E9449031E82DF91CF910895FD
:100770009091AB029F3F39F48EBD00000DB407FE8F
:10078000FDCF8EB50895F89428E0E091A902F0918C
:10079000AA0230814091A802942F9095392330838A
:1007A000A091A602B091A7029091A5023C9187FF6B
:1007B00002C0932B02C0909593239C939081942B1D
:1007C0009083880F215009F700000000000000000E
:1007D000E091A902F091AA0290818091A8028095EF
:1007E00089238083789408958F929F92AF92BF92CD
:1007F000FF920F931F93CF93DF93EC01F62E4901E5
:100800005A010E949E0360E08C810E9485196CE26F
:1008100071E0CE010E9483038F2D80640E94B80393
:1008200008E110E0D501C401002E04C0B695A795DB
:10083000979587950A94D2F70E94B803085011093A
:10084000083F8FEF180771F7FF2029F088E0F812B2
:1008500004C087E803C085E901C08FEF0E94B80398
:1008600010E00E944E038A8787FF04C01F3F11F0EB
:100870001F5FF7CFDF91CF911F910F91FF90BF9036
:10088000AF909F908F900895AF92BF92CF92DF92DA
:10089000EF92FF920F931F93CF93DF93EC016901C7
:1008A000C801820F931F8130924008F070C08E8182
:1008B000882371F088819981AA81BB81841795076B
:1008C000A607B70729F48F819885C816D906B0F511
:1008D000488359836A837B838B85833039F089E031
:1008E000440F551F661F771F8A95D1F79A01AB01F8
:1008F00061E1CE010E94F403882319F083E08D8327
:1009000046C00E94481A5B010E944E038A878F3FAF
:1009100049F40E94481A6A197B096D327140A0F3AC
:100920008FE003C08E3F31F08DE08D83CE010E94B9
:1009300049032DC018861F8281E08E838F819885A0
:100940008C159D0540F40E944E038F819885019679
:1009500098878F83F3CF6701E00EF11EEC14FD043E
:1009600031F00E944E03F60181936F01F7CF8F8122
:100970009885080F191F18870F838985882319F018
:100980000115124048F0CE010E949E0305C0CE0121
:100990000E94490380E001C081E0DF91CF911F9167
:1009A0000F91FF90EF90DF90CF90BF90AF900895A0
:1009B000CF92DF92EF92FF920F931F93CF93DF932B
:1009C000EC017901411551056105710511F482E1D0
:1009D00065C08B85833039F0E9E0440F551F661FF1
:1009E000771FEA95D1F79A01AB0168E1CE010E9429
:1009F000F403882311F084E051C08C8597013E5F99
:100A00006901882321F1F70100E010E0819190E075
:100A100081279C0144E0359527954A95E1F7822787
:100A20009327102F0027082719279C01322F2227F0
:100A30003295307F0227132775E0880F991F7A952A
:100A4000E1F708271927CE16DF0601F702C00FEFDE
:100A50001FEF8EEF0E94B803F70181917F010E9482
:100A6000B803CE14DF04C1F7812F0E94B803802F92
:100A70000E94B8030E944E038A878F71853031F03F
:100A800081E18D83CE010E94490309C068E572E0CF
:100A9000CE010E948303811107C085E18D83CE01C1
:100AA0000E94490380E013C020E030E0A9016DE01E
:100AB000CE010E94F403811104C00E944E038823DA
:100AC00011F084E1EBCFCE010E94490381E0DF9178
:100AD000CF911F910F91FF90EF90DF90CF900895ED
:100AE0008091EE028823A9F14091070150910801FD
:100AF0006091090170910A0121EE33E08091E105D6
:100B00009091E2050E94D804811102C080E008950E
:100B10004091EF025091F0026091F1027091F20267
:100B2000411551056105710591F021EE33E0809189
:100B3000E1059091E2050E94D804882339F31092D0
:100B4000EF021092F0021092F1021092F202109253
:100B5000EE0281E008958F929F92AF92BF92EF9242
:100B6000FF920F931F93CF934B015C01C42F809191
:100B7000070190910801A0910901B0910A0188151F
:100B80009905AA05BB0501F10E947005811102C0FB
:100B900080E020C081EEE82E83E0F82E00E012E035
:100BA00020E030E0B501A4018091E1059091E205DB
:100BB0000E944404882361F3809207019092080107
:100BC000A0920901B0920A018091EE02C82BC09355
:100BD000EE0281E0CF911F910F91FF90EF90BF90B7
:100BE000AF909F908F9008954F925F926F927F92F7
:100BF000AF92BF92CF92DF92EF92FF920F931F932B
:100C0000CF93DF931F92CDB7DEB7FC01258122235E
:100C100009F4C1C0848180FFBEC083899489A589FD
:100C2000B689428453846484758484159505A60529
:100C3000B70509F4B0C06F015201F1E0BF22D6013F
:100C40005B968D919C915C97B301A20139E07695FA
:100C50006795579547953A95D1F7223071F4FC0185
:100C6000828D938DA48DB58D8A019B01080F191F6C
:100C70002A1F3B1FC901B8014AC0DC0114961C9110
:100C800011501423A114B104F9F411111DC0452809
:100C90004628472851F4F6018789908DA18DB28DA1
:100CA00086839783A087B1870FC0D60116964D9192
:100CB0005D916D917C91199796012A5F3F4F0E943B
:100CC0007413882309F467C0F601238D348D86815F
:100CD0009781A085B1850297A109B109AC01BD0139
:100CE000F901058404C0440F551F661F771F0A943D
:100CF000D2F786859785A089B189840F951FA61F95
:100D0000B71FBC01CD01610F711D811D911DD60161
:100D100014962C9126FF0DC04090070150900801B9
:100D20006090090170900A01461657066806790618
:100D300099F440E00E94AB05882369F1F501EF5179
:100D4000FC4FDE0111969F012F5F3F4F2E173F078B
:100D500099F081918D93FACFFE0131967F0101E0E8
:100D600010E09501AB01BC018091E1059091E20595
:100D70000E944404882379F0F60182859385A48536
:100D8000B5850196A11DB11D82879387A487B5877C
:100D9000898190E002C08FEF9FEF0F90DF91CF919C
:100DA0001F910F91FF90EF90DF90CF90BF90AF9089
:100DB0007F906F905F904F900895FC01818D928D90
:100DC000009711F00C94F4058FEF9FEF08950F93A7
:100DD0001F93CF93DF93FC01818D928D0097B9F023
:100DE000EF010E94F4058C010F3F8FEF180791F07F
:100DF000898D9A8DFC0142855385648575854150A6
:100E00005109610971090E94B202C80105C080E060
:100E100090E002C08FEF9FEFDF91CF911F910F9174
:100E20000895CF93DF93EC018D81882379F18C8134
:100E300087FF28C06E857F858889998941E00E9457
:100E4000AB05882319F1EA8980E2E89FF0011124BB
:100E5000EF51FC4F3097D1F08D81823040F48B8977
:100E60009C89AD89BE89848F958FA68FB78F8F8916
:100E7000988DA98DBA8D938F828FB58BA48B8C8121
:100E80008F778C83DF91CF910C94700580E0DF9198
:100E9000CF9108958F929F92AF92BF92CF92DF929F
:100EA000EF92FF920F931F93CF93DF9300D000D068
:100EB000CDB7DEB77C0180E2689FF0011124EF51CD
:100EC000FC4F9385917121F0842F827409F08FC0BB
:100ED000142FD70152966C9352974091070150916D
:100EE00008016091090170910A011E964D935D936E
:100EF0006D937C9351974489558960E070E0BA0105
:100F000055274427828D938DA0E0B0E0482B592BC4
:100F10006A2B7B2BD70157964D935D936D937C93F2
:100F20005A978385887159F4848D958DA68DB78DD8
:100F3000F701838B948BA58BB68B81E012C0803137
:100F400009F055C097012D5E3F4FD7015B968D91FB
:100F50009C915C970E94FD14882309F448C084E0AA
:100F6000F7018583812F8F70D70114968C93149786
:100F7000F70116821782108611861A961D921D920D
:100F80001D921C921D9716FF34C015968C918130CE
:100F900071F511FF2CC0F701438954896589768961
:100FA000452B462B472B09F461C040E050E0BA01C5
:100FB000C7010E94B2028823D1F0F7018788908C84
:100FC000A18CB28CC38CD48C82E090E0A0E0B0E025
:100FD000F60180839183A283B3839E012F5F3F4FED
:100FE000B501A401C6010E947413811104C080E000
:100FF0003DC081E03BC000E010E09801B501A401D4
:10100000C6010E94D312882391F389809A80AB8015
:10101000BC80D60157968C91803129F088EF9FEFE4
:10102000AFEFBFE004C088EF9FEFA0E0B0E088160C
:101030009906AA06BB0688F2D70157961D921D9203
:101040001D921C925A97F701138A148A158A168AE0
:10105000848180688483C7010E941107882339F244
:1010600040E050E0BA01C7010E94B2020F900F9019
:101070000F900F90DF91CF911F910F91FF90EF9004
:10108000DF90CF90BF90AF909F908F9008952F9258
:101090003F924F925F926F927F928F929F92AF9208
:1010A000BF92CF92DF92EF92FF920F931F93CF9355
:1010B000DF93CDB7DEB72B970FB6F894DEBF0FBE28
:1010C000CDBF7C01FE013196CE010C966F0130E25E
:1010D0003193E817F907E1F7DA0130E087E09D91F5
:1010E000992331F19E3231F48A3009F46BC138E032
:1010F0008AE0F5CFE2E6F1E04491442321F0319615
:101100009413FACF5FC1831708F45CC14FED490F08
:101110004E3508F057C141E0430FF601E30FF11DD2
:101120003FE9390F3A3108F490529083342FD7CFEA
:101130008981803209F446C1322E8B01DB015B9636
:101140008D919C915C97F701948F838F16961D92D9
:101150001D921D921C921997FB011286138614860C
:101160001586B12CF80182859385A485B5854389C0
:1011700054896589768984179507A607B70708F00B
:101180005BC025E0B695A795979587952A95D1F7E9
:10119000F82FFF70AF2ED80115968C91823008F48D
:1011A00011C1C8010E94F40597FD0CC1F8018285A8
:1011B0009385A485B5854F96A11DB11D8287938720
:1011C000A487B587F0E2AF9EB00111246F517C4F28
:1011D0006115710509F4F6C0DB018C91882319F0C3
:1011E000853EC1F4F1C0B1100EC0F701A28A809112
:1011F000070190910801A0910901B0910A01868729
:101200009787A08BB18BDB018C91882399F0BB244D
:10121000B394A8CF4BE050E0C6010E94182B892B55
:1012200009F0A0CF832D8073803309F4CBC0432D08
:101230006A2DC4C0BB24B394832D8271823109F01E
:10124000C1C0BB20C1F0F70166857785808991898F
:1012500041E00E94AB05882309F4B4C0D70152963F
:101260008C91B0E28B9FC00111248F519C4F00974D
:1012700009F078C0A7C0F8018581823009F4A2C0C6
:10128000C8010E94AF01882309F49CC0D8015B9675
:10129000ED91FC915C9716968D909D90AD90BC90D1
:1012A0001997B2E08B1A9108A108B108058404C00F
:1012B000880C991CAA1CBB1C0A94D2F786859785BA
:1012C000A089B189880E991EAA1EBB1E2480E1E068
:1012D0008E1A9108A108B108222009F124013501D4
:1012E000420C511C611C711C0E947005882309F47A
:1012F00069C0E1EEF3E0119225E0E13EF207D9F793
:1013000040920701509208016092090170920A010F
:101310008091EE0281608093EE022A94DDCFD801A5
:101320005B96ED91FC915C9780E092E0A0E0B0E0EC
:10133000058404C0880F991FAA1FBB1F0A94D2F707
:10134000F8014389548965897689840F951FA61F02
:10135000B71F838B948BA58BB68BD70152961C92AB
:1013600081EE93E020E2FC0111922A95E9F72BE04F
:10137000F601DC0101900D922A95E1F721E238E2B5
:10138000DC0151963C932E93509740E058E01F9615
:101390005C934E931E9753963C932E935297599677
:1013A0003C932E93589757965C934E9356970E9472
:1013B0007005882339F0432DF7016289C7010E9427
:1013C0004A0705C080E003C0B11021CF0ECF2B9695
:1013D0000FB6F894DEBF0FBECDBFDF91CF911F9146
:1013E0000F91FF90EF90DF90CF90BF90AF909F90C4
:1013F0008F907F906F905F904F903F902F900895C7
:10140000CF93DF93EC010E941107882311F01D8216
:1014100081E0DF91CF910895FC01818D928D00973D
:1014200011F00C94110708952F923F924F925F9202
:101430006F927F928F929F92AF92BF92CF92DF92E4
:10144000EF92FF920F931F93CF93DF9300D000D0C2
:10145000CDB7DEB78C015B011A01DC0115968C91CA
:1014600015978130C9F414968C9181FF15C082FFC5
:101470001DC0F801438954896589768982859385E1
:10148000A485B58584179507A607B70779F0C80125
:101490000E94B20281110AC081E090E0D801139647
:1014A0009C938E93129780E090E036C1610183C0D7
:1014B0005B968D919C915C97FC0174802FEF270DBA
:1014C0002A013B0139E076946794579447943A9502
:1014D000D1F7722E74207A01F1E0FF22772009F40F
:1014E00076C080E092E08E199F0946018C159D051B
:1014F00008F44C01D8015B962D913C915C971696AF
:101500008D919D910D90BC91A02D0297A109B109DB
:10151000F901058404C0880F991FAA1FBB1F0A94F4
:10152000D2F74685578560897189840F951FA61F5C
:10153000B71F9C01AD01270D311D411D511D290112
:101540003A01811432E0930609F088C080910701C6
:1015500090910801A0910901B0910A01481659061D
:101560006A067B0659F48FEF9FEFDC018093070139
:1015700090930801A0930901B0930A019501B3016A
:10158000A2018091E1059091E2050E94D804882390
:1015900009F482CF9EEFB91AC818D908F8018285DC
:1015A0009385A485B585880D991DA11DB11D8287E0
:1015B0009387A487B587D8011A964D915D916D9157
:1015C0007C911D97C114D10409F072CF87C0E1143A
:1015D000F10409F086CF16964D915D916D917C9145
:1015E0001997411551056105710559F457968D916B
:1015F0009D910D90BC91A02D0097A105B10541F5DD
:1016000021C09E012F5F3F4F0E947413882309F46D
:101610004BCF89819A81AB81BC81F801238D348DB8
:10162000F9012789203129F048EF5FEF6FEF7FE064
:1016300004C048EF5FEF60E070E084179507A607ED
:10164000B70730F0C8010E94AF0181114ACF24CF03
:10165000F80186839783A087B18743CFE114F10413
:1016600029F5D8011A964D915D916D917C911D9748
:1016700053968D919D910D90BC91A02D48175907BF
:101680006A077B0798F00E947005882309F404CF4D
:1016900040920701509208016092090170920A017C
:1016A0008091EE0281608093EE0208C041E0C301A8
:1016B000B2010E94AB05882309F4EECED501F701F3
:1016C000EF51FC4F9F01280D391D2E173F0719F0D0
:1016D0008D918193FACFA80CB91C5ECFF801838954
:1016E0009489A589B68984179507A607B70738F4A2
:1016F000438B548B658B768B848180688483F8015F
:10170000848183FD02C0C10107C0C8010E94110786
:10171000882309F4C1CEF7CF0F900F900F900F9050
:10172000DF91CF911F910F91FF90EF90DF90CF90BD
:10173000BF90AF909F908F907F906F905F904F90F1
:101740003F902F900895CF93DF931F92CDB7DEB7D0
:10175000698341E050E0BE016F5F7F4F0E94140A31
:101760000F90DF91CF910895CF93DF93EC01898D96
:101770009A8D009739F481E090E09B838A8380E022
:1017800090E00BC0FC01138212820E94140AE98DC2
:10179000FA8D22813381232B71F7DF91CF91089548
:1017A0009CB59C7F282F2370922B9CBD2DB582FB6E
:1017B000992790F9822F8E7F892B8DBD0895FC018A
:1017C000DB0112968D919C9113979383828389E418
:1017D00091E09183808314968C911497848315965D
:1017E0008C911597858316964D915D916D917C91A5
:1017F000199746835783608771871A964D915D913B
:101800006D917C911D9742875387648775871E96DB
:101810004D915D916D917C91519746875787608B73
:10182000718B52968C915297828B53964D915D910C
:101830006D917C915697438B548B658B768B579625
:101840004D915D916D917C915A97478B508F618F2F
:10185000728F5B968D919C915C97948F838F089586
:101860001F93CF93DF93172FC82FD0E0CE010E9494
:101870001827612FCE010196DF91CF911F910C9413
:1018800018270895CF92DF92EF92FF920F931F9344
:10189000CF93DF936C017A018B01C0E0D0E0CE15CD
:1018A000DF0581F0D8016D918D01D601ED91FC919C
:1018B0000190F081E02DC6010995892B11F0219648
:1018C000EECF7E01C701DF91CF911F910F91FF9065
:1018D000EF90DF90CF900895FC01538D448D252F1C
:1018E00030E0842F90E0821B930B541710F0CF96BA
:1018F000089501970895FC01918D828D981761F0EC
:10190000828DDF01A80FB11D5D968C91928D9F5F36
:101910009F73928F90E008958FEF9FEF0895FC01E1
:10192000918D828D981731F0828DE80FF11D858D94
:1019300090E008958FEF9FEF0895FC01918D228D27
:10194000892F90E0805C9F4F821B91098F739927AC
:10195000089583EE95E00E949D0C21E0892B09F407
:1019600020E0822F0895FC01848DDF01A80FB11DB6
:10197000A35ABF4F2C91848D90E001968F739927C5
:10198000848FA689B7892C93A089B1898C918370A3
:1019900080648C93938D848D981306C00288F3899C
:1019A000E02D80818F7D80830895EF92FF920F93C9
:1019B0001F93CF93DF93EC0181E0888F9B8D8C8DFB
:1019C000981305C0E889F989808185FD26C0F62E27
:1019D0000B8D10E00F5F1F4F0F731127E02E8C8DC2
:1019E000E8120CC00FB607FCFACFE889F9898081AC
:1019F00085FFF5CFCE010E94B30CF1CF8B8DFE0198
:101A0000E80FF11DE35AFF4FF0829FB7F8940B8F58
:101A1000EA89FB89808180620AC09FB7F894EE89C9
:101A2000FF896083E889F98980818370806480837D
:101A30009FBF81E090E0DF91CF911F910F91FF90C8
:101A4000EF900895CF93DF93EC01888D8823C9F040
:101A5000EA89FB89808185FD05C0A889B9898C91B7
:101A600086FD0FC00FB607FCF5CF808185FFF2CF52
:101A7000A889B9898C9185FFEDCFCE010E94B30C66
:101A8000E7CFDF91CF91089580E090E0892B29F096
:101A90000E94A90C81110C940000089585ED80939B
:101AA000BC008091BC0084FDFCCF1092BC03089563
:101AB00040915303262F30E0240F311D2132310590
:101AC000DCF42091BC032430C9F4FC0180E090E0F8
:101AD000861758F4309153032191DC01AD5CBC4F63
:101AE000A30FB11D2C930196F3CF80915303680F80
:101AF0006093530380E0089581E0089582E00895A3
:101B0000089508950895E091AD028091AC02E81720
:101B100030F4F0E0EA58FC4F808190E008958FEFB8
:101B20009FEF08959091AD028091AC02981750F408
:101B3000E92FF0E0EA58FC4F208130E09F5F90935E
:101B4000AD0202C02FEF3FEFC90108958091AC02B2
:101B500090E02091AD02821B91090895CF92DF920F
:101B6000EF92FF920F931F93CF93DF937C01CB01F2
:101B70008A012091BD03222389F0EB016B01C40E81
:101B8000D51ECC15DD0569F06991D701ED91FC9169
:101B90000190F081E02DC7010995F3CF642F0E94D9
:101BA000580DC801DF91CF911F910F91FF90EF90D9
:101BB000DF90CF900895CF93DF931F92CDB7DEB71C
:101BC00069832091BD032223D1F02091E0032032CC
:101BD00040F021E030E0FC013383228380E090E09C
:101BE00015C08091BE03E82FF0E0E154FC4F9981CD
:101BF00090838F5F8093BE038093E00305C061E014
:101C0000CE0101960E94580D81E090E00F90DF9187
:101C1000CF91089520919C0230919D022817390799
:101C200081F490919A0280919B02981751F0E09173
:101C30009A02F0E0ED50FD4F8081082E000C990BC8
:101C400008958FEF9FEF089520919C0230919D029F
:101C50002817390739F48FB7F89410929B02109225
:101C60009A028FBF089520919C0230919D022817FF
:101C7000390771F480919B0220919A0290E0805C78
:101C80009F4F821B910960E470E00E94992708959C
:101C900080E090E0089520919C0230919D022817E9
:101CA0003907B9F490919A0280919B02981789F0B4
:101CB000E0919A02F0E0ED50FD4F808120919A0270
:101CC00030E02F5F3F4F2F73332720939A0290E02D
:101CD00008958FEF9FEF08950E94132B0F931F938A
:101CE000CF93DF93EC0188819981009729F02A81B5
:101CF0003B812617370788F48B016F5F7F4F0E9467
:101D00004D2A009761F0998388831B830A832C8175
:101D10003D81232B11F4FC01108281E001C080E0A1
:101D2000DF91CF911F910F910895EF92FF920F9342
:101D30001F93CF93DF936115710511F480E01CC0F0
:101D400041155105C1F07B01EC018C819D818A0117
:101D5000080F191FB801CE010E946E0E882371F37F
:101D6000288139818C819D81B701820F931F0E9448
:101D7000392B1D830C8381E0DF91CF911F910F914F
:101D8000FF90EF900895CF93DF93EC0188819981C4
:101D9000009711F00E94C429198218821D821C82AA
:101DA0001B821A82DF91CF910895CF93DF93EC01CC
:101DB0006115710561F0FB0101900020E9F7319791
:101DC000AF01461B570B0E94950E811103C0CE0137
:101DD0000E94C30ECE01DF91CF910895CF93DF9380
:101DE000EC01FB0144815581608171810E94950E57
:101DF000811103C0CE010E94C30ECE01DF91CF91AD
:101E00000895EF92FF920F931F93CF93DF93EC010E
:101E10007B018A01BA010E946E0E811104C0CE01BD
:101E20000E94C30E07C01D830C83B701888199816E
:101E30000E94392BCE01DF91CF911F910F91FF901E
:101E4000EF900895FC01808191810C94C429FB01DD
:101E5000DC0111961C921E9213961C921E921297F0
:101E600015961C921E9214978617970749F0608169
:101E700071816115710521F0448155810C94010F28
:101E80000895FC011182108213821282158214823D
:101E90006115710551F0FB0101900020E9F73197C0
:101EA000AF01461B570B0C94010F08951F920F9220
:101EB0000FB60F9211242F933F934F935F936F931D
:101EC0007F938F939F93AF93BF93EF93FF93E09193
:101ED0000201F09103010995FF91EF91BF91AF913C
:101EE0009F918F917F916F915F914F913F912F9132
:101EF0000F900FBE0F901F9018951F920F920FB664
:101F00000F9211242F933F934F935F936F937F937F
:101F10008F939F93AF93BF93EF93FF93E091000153
:101F2000F09101010995FF91EF91BF91AF919F91C0
:101F30008F917F916F915F914F913F912F910F9072
:101F40000FBE0F901F9018956115710579F0FB0178
:101F500001900020E9F73197AF01461B570BDC01D8
:101F6000ED91FC910280F381E02D099480E090E0F6
:101F700008950F931F93CF93DF93EC010E94A40F5A
:101F80008C0160E472E0CE010E94A40F800F911FCB
:101F9000DF91CF911F910F9108950F931F93CF93CE
:101FA000DF93EC01FB014481558160817181E881FF
:101FB000F9810280F381E02D09958C0160E472E0E3
:101FC000CE010E94A40F800F911FDF91CF911F912E
:101FD0000F9108951F920F920FB60F9211242F9315
:101FE0003F934F935F936F937F938F939F93AF93A1
:101FF000BF93EF93FF9383EE95E00E94B30CFF91A4
:10200000EF91BF91AF919F918F917F916F915F9170
:102010004F913F912F910F900FBE0F901F901895E9
:102020001F920F920FB60F9211242F938F939F93AD
:10203000EF93FF93E091F305F091F4058081E09137
:10204000F905F091FA0582FD12C090818091FC059E
:102050008F5F8F732091FD05821751F0E091FC0591
:10206000F0E0ED51FA4F958F8093FC0501C080811F
:10207000FF91EF919F918F912F910F900FBE0F9035
:102080001F901895CF93C62F91E09093BD0398E6CB
:102090009093DF031092BE031092E003682F80E854
:1020A00096E00E94DB0D6C2F80E896E00E94DB0D2D
:1020B00081E0CF910C9498171F920F920FB60F9258
:1020C00011242F933F934F935F936F937F938F933D
:1020D0009F93AF93BF93EF93FF938091B900887F55
:1020E000803609F49CC068F5883209F45BC090F42E
:1020F000803109F454C038F4882309F4F6C08830DC
:1021000009F44DC0F6C0883109F44CC0803209F49E
:102110005DC0EFC0803409F468C048F4803309F42E
:1021200055C0883309F0E5C08093BA03D8C0803524
:1021300009F44FC0883509F45DC0883409F0D9C06E
:10214000D6C0883909F4C7C0A8F4883709F467C035
:1021500038F4883609F463C0803709F460C0C9C018
:10216000883809F4B8C0803909F45FC0803809F0B4
:10217000C0C05BC0803B09F486C038F4803A09F4E3
:1021800066C0883A09F47FC0B4C0803C09F4A7C097
:10219000883C09F4A4C0883B09F48AC0AAC0809195
:1021A000970310C09091B9038091B803981770F508
:1021B000E091B90381E08E0F8093B903F0E0E85617
:1021C000FC4F80818093BB0085EC86C08093BA036E
:1021D0008EC0E091B90381E08E0F8093B9038091A6
:1021E000BB00F0E0E856FC4F80839091B9038091EA
:1021F000B8036EC0E091B90381E08E0F8093B903FC
:102200008091BB00F0E0E856FC4F80838091BB03D7
:1022100081116DC081E08093960384EA61C083E000
:102220008093BC0310927503CFCF809175038032E9
:1022300008F051C0E091750381E08E0F8093750323
:102240008091BB00F0E0EB5AFC4F8083BDCF85EC62
:102250008093BC001092BC0380917503803230F4EF
:10226000E0917503F0E0EB5AFC4F1082609175032A
:1022700070E0E0919E02F0919F0285E593E0099560
:102280001092750336C084E08093BC03109254030F
:1022900010925303E091A002F091A1020995809160
:1022A0005303811105C081E08093530310923303DF
:1022B000E091540381E08E0F80935403F0E0ED5CD5
:1022C000FC4F80818093BB00909154038091530315
:1022D000981708F479CF85E88093BC000AC085EC94
:1022E0008093BC001092BC0304C01092BA030E94F9
:1022F0004E0DFF91EF91BF91AF919F918F917F9183
:102300006F915F914F913F912F910F900FBE0F9062
:102310001F90189520E001972FEF8F3F9207D9F774
:102320000895DF92EF92FF920F931F93CF93DF9365
:10233000EC01298D3A8D2115310529F481E090E0D9
:102340009B838A835AC0162FDFB6F8948B8D81FD4C
:102350004DC0CE010E947919898D9A8D05960E94F3
:102360008A118B8D98E0E92EF12C01E081FF1AC0D3
:10237000812F802321F0CE010E94791906C0E989BE
:10238000FA8990818889892B8083898D9A8D0E9412
:102390008A11000F81E0E81AF10851F7CE010E947E
:1023A00079191CC0812F802339F0E989FA8990813D
:1023B0008889892B808303C0CE010E947919898D79
:1023C0009A8D0E948A11000F81E0E81AF10851F7F6
:1023D000E989FA8990818889892B8083DFBE898D7C
:1023E0009A8D0E948A1121E030E007C0E989FA89BC
:1023F00090818889892B8083AFCFC901DF91CF91EC
:102400001F910F91FF90EF90DF9008951F920F9210
:102410000FB60F921124EF92FF920F931F932F93F9
:102420003F934F935F936F937F938F939F93AF935C
:10243000BF93CF93DF93EF93FF93C0919C02D09112
:102440009D02209709F450C09B8DEE85FF858D85F8
:1024500091FF04C09081892329F446C0908189238B
:1024600009F042C08B899C890E948A1188E0E82E7D
:10247000F12C10E001E08D899E890E948A11EE8581
:10248000FF8590818D85892311F0102B03C0802F4B
:1024900080951823000F81E0E81AF10861F78F8911
:1024A000988D0E948A118B8D81FD109580919B02E1
:1024B00020919A0290E001968F73992730E082175D
:1024C000930779F0E0919B02F0E0ED50FD4F10830F
:1024D00080919B0290E001968F73992780939B02D5
:1024E00003C08B8D81608B8FFF91EF91DF91CF9136
:1024F000BF91AF919F918F917F916F915F914F911C
:102500003F912F911F910F91FF90EF900F900FBE71
:102510000F901F9018951F920F920FB60F921124D3
:102520002F933F934F935F936F937F938F939F93DB
:10253000AF93BF93EF93FF930E940612FF91EF9129
:10254000BF91AF919F918F917F916F915F914F91CB
:102550003F912F910F900FBE0F901F9018951F92D3
:102560000F920FB60F9211242F933F934F935F93C7
:102570006F937F938F939F93AF93BF93EF93FF934B
:102580000E940612FF91EF91BF91AF919F918F91A1
:102590007F916F915F914F913F912F910F900FBE5F
:1025A0000F901F9018954F925F926F927F928F922B
:1025B0009F92AF92BF92CF92DF92EF92FF920F93D2
:1025C0001F93CF93DF93EC014230510561057105F4
:1025D00010F480E078C089859A85AB85BC8501962A
:1025E000A11DB11D84179507A607B70790F3CB88E7
:1025F000DC88ED88FE888F89803129F4BB27A72FDE
:10260000962F852F09C0DB01CA01E7E0B695A79593
:1026100097958795EA95D1F7480159012A013B0121
:10262000C80ED91EEA1EFB1E809107019091080179
:10263000A0910901B0910A01C816D906EA06FB0665
:1026400081F48F898031A9F4B301A201552766274F
:102650007727440F551FFA01EF51FC4F918280827A
:1026600019C040E0C701B6010E94AB058111E9CF56
:10267000B0CFB301A2014F77552766277727440FC4
:10268000551F440F551FFA01EF51FC4F8082918274
:10269000A282B3828091EE0281608093EE028A89E9
:1026A000823080F08D819E81AF81B885C80ED91EA1
:1026B000EA1EFB1EC092EF02D092F002E092F102FD
:1026C000F092F20281E0DF91CF911F910F91FF9084
:1026D000EF90DF90CF90BF90AF909F908F907F90C2
:1026E0006F905F904F9008958F929F92AF92BF929C
:1026F000CF92DF92EF92FF920F931F93CF93DF93CE
:10270000FC0181859285A385B4850196A11DB11D2B
:1027100084179507A607B70710F480E05BC083888D
:102720009488A588B6888789803129F4BB27A72F8C
:10273000962F852F09C0DB01CA01C7E0B695A79582
:1027400097958795CA95D1F7E9016A017B018F01B9
:10275000BC01CD01680D791D8A1D9B1D809007016C
:1027600090900801A0900901B0900A0168157905C0
:102770008A059B0591F4F80187898031A1F4DD2455
:10278000EE24FF24C601880F991FFC01EF51FC4F76
:1027900080819181A0E0B0E018C040E00E94AB05CC
:1027A0008111E9CFBACFE894C7F8DD24EE24FF24E5
:1027B000C601880F991F880F991FFC01EF51FC4F2C
:1027C00080819181A281B381BF7088839983AA831C
:1027D000BB8381E0DF91CF911F910F91FF90EF902C
:1027E000DF90CF90BF90AF909F908F900895EF9221
:1027F000FF920F931F93CF93DF93EC017B018A012C
:102800001B821A8288EE93E0A0E0B0E08C839D8367
:10281000AE83BF8385E591E0998388838DE190E065
:102820000E942C299A8F898F009779F02DE1F7016A
:10283000DC0101900D922A95E1F74CE050E0B801DF
:10284000CE010C960E94402B188EDF91CF911F91E4
:102850000F91FF90EF900895EF92FF920F931F93C7
:10286000CF93DF93CDB7DEB7A1970FB6F894DEBF55
:102870000FBECDBF7C01CB01BA01F70111821082DE
:1028800013821282158214828E010F5F1F4F22E085
:1028900044E00E947023009769F0FC010190002041
:1028A000E9F73197AF01481B590BBC01C7010E94E2
:1028B000010F03C0C7010E94C30EA1960FB6F89482
:1028C000DEBF0FBECDBFDF91CF911F910F91FF9063
:1028D000EF900895CF9380E090E00E941027C82FDA
:1028E00081E090E00E9410272C2F30E0A901582BA6
:1028F000CA01CF910895CF93DF93FC018281938128
:102900009093D9068093D80684819581A681B7815A
:102910008093DA069093DB06A093DC06B093DD0685
:1029200080859185A285B3858093DE069093DF062E
:10293000A093E006B093E106EF012C96A2EEB6E07C
:1029400089918D9386E0AF3EB807D1F7818D928D46
:102950009093F0068093EF0686ED96E0DF91CF919D
:1029600008958091EF069091F006009761F00E9423
:10297000000A8091EF069091F0060E94C4291092FF
:10298000F0061092EF060895EF92FF920F931F93B7
:10299000CF93DF93CDB7DEB729970FB6F894DEBF9C
:1029A0000FBECDBF8C01862FF801118210821382D9
:1029B0001282158214824AE09E012F5F3F4F7901F7
:1029C000B90190E00E949023F70101900020E9F7FF
:1029D0003197AF014E195F09B701C8010E94010F7D
:1029E00029960FB6F894DEBF0FBECDBFDF91CF9111
:1029F0001F910F91FF90EF9008954F925F926F9209
:102A00007F92AF92BF92CF92DF92EF92FF920F939D
:102A10001F93CF93DF9300D000D0CDB7DEB78C01EA
:102A200049835A836B837C835901C12CD12C760155
:102A3000412C82E0582E612C712C49815A816B8186
:102A40007C819E012F5F3F4FC8010E947413882331
:102A500051F1D301C201F801058404C0880F991F08
:102A6000AA1FBB1F0A94D2F7C80ED91EEA1EFB1E6E
:102A700049815A816B817C818789803129F088EF77
:102A80009FEFAFEFBFE004C088EF9FEFA0E0B0E0A2
:102A9000481759076A077B0780F2F501C082D18287
:102AA000E282F38281E00F900F900F900F90DF9100
:102AB000CF911F910F91FF90EF90DF90CF90BF903B
:102AC000AF907F906F905F904F9008952F923F92BC
:102AD0004F925F926F927F928F929F92AF92BF922E
:102AE000CF92DF92EF92FF920F931F93CF93DF93DA
:102AF000CDB7DEB7C656D1090FB6F894DEBF0FBE0C
:102B0000CDBF6C015B014E018EE1880E911C67EB1D
:102B100076E0C4010E94DF0B1C821B8289E491E0F5
:102B20009A8389831E8275018E010F5F1F4F2401D6
:102B300018016FE270E0C7010E942E2B009709F484
:102B400042C0F70120812F3221F4FFEFEF1AFF0A74
:102B5000F0CF8E198D3008F08CE0682E712CA30117
:102B6000B701CE01885A9F4F0E94402BE8E5F0E064
:102B7000EC0FFD1FE60DF71D1082C8010E94000A30
:102B8000F8018581882351F01EAE1DAE89E491E0E5
:102B90009CAF8BAF21961FAE219721C021E0AE01E3
:102BA000485A5F4FB201C8010E944708882361F369
:102BB000E60CF71CC2010E94000A942D852D280105
:102BC000092F182FB6CFC7018A199B09A7969FAF67
:102BD0008EAFA797B201CE01CB960E94DF0BA796CE
:102BE000EEADFFADA797AE0EBF1EF501808181113E
:102BF00009C0BE01655C7F4FC1010E94DF0B4AE541
:102C000052E044C019A218A289E491E09F8F8E8FF0
:102C10001BA221968FAD2197811113C0F60113825B
:102C2000128288EE93E0A0E0B0E084839583A683CF
:102C3000B78385E591E091838083128E118E14868F
:102C400029C0825023E1A501823040F467EB76E091
:102C5000C4010E94470881110DC0E0CFBE01655C30
:102C60007F4FC4010E9447088823C1F2CE01CB9652
:102C70000E94000A49A95AA96BA97CA9C4010E9413
:102C8000B202B401C1010E94DF0BA501B101C6016E
:102C90000E94F713C601CA59DF4F0FB6F894DEBF82
:102CA0000FBECDBFDF91CF911F910F91FF90EF909D
:102CB000DF90CF90BF90AF909F908F907F906F905C
:102CC0005F904F903F902F9008958F929F92AF9278
:102CD000BF92CF92DF92EF92FF92CF93DF93C82FF4
:102CE0008CE896E09093E2058093E105CC2369F1AE
:102CF000C53010F080E00CC140E060E070E0CB0136
:102D00000E94AB058823B1F320E1C29FC0011124CA
:102D10008F529C4FFC01E254FE4F20812F7751F7D8
:102D20003C96408151816281738144365105610531
:102D3000710500F33497C080D180E280F380C11424
:102D4000D104E104F10421F4D5CFC12CD12C7601BA
:102D500040E0C701B6010E94AB05882359F280917B
:102D6000EC039091ED038115924021F6A091F103BF
:102D7000AA2309F4BFCF6091EF037091F0036115AE
:102D8000710509F4B7CF2091EE03222309F4B2CFE5
:102D9000A093AB0620939D0680E030E041E050E038
:102DA000C82FFA01082E02C0EE0FFF1F0A94E2F7A7
:102DB0002E173F0739F08F5FC83091F789E0809375
:102DC000A60698CF8093A6062091F7033091F803CA
:102DD0002115310519F040E050E008C020910504AC
:102DE00030910604409107045091080420939E06F8
:102DF00030939F064093A0065093A10646015701C9
:102E0000860E971EA11CB11C8092AC069092AD0656
:102E1000A092AE06B092AF06E091F203F091F303F8
:102E2000F093B206E093B106B0E00E942627860E2A
:102E3000971EA81EB91E8092B3069092B406A09267
:102E4000B506B092B60685E0EE0FFF1F8A95E1F752
:102E5000E150FE4FEF2FFF27E6958E0E9F1EA11C1F
:102E6000B11C8092A7069092A806A092A906B092E3
:102E7000AA062091F4033091F5032115310521F0C4
:102E8000A90160E070E008C0409101045091020483
:102E90006091030470910404D701C601881999094F
:102EA000AA09BB09840F951FA61FB71F04C0B695BA
:102EB000A79597958795CA95D2F78093A206909388
:102EC000A306A093A406B093A506853F2FE0920722
:102ED000A105B10510F48CE018C0853F9F4FA105F6
:102EE000B10510F480E111C080910D0490910E04A1
:102EF000A0910F04B09110048093B3069093B40690
:102F0000A093B506B093B60680E28093B00681E048
:102F1000DF91CF91FF90EF90DF90CF90BF90AF9077
:102F20009F908F900895BC0183EE95E00C94A40FC0
:102F3000282F3091E003313208F04AC08091BC0361
:102F40008111FCCF9091DF0342E04093BC032093BA
:102F5000BB032FEF2093BA031092B9033093B80349
:102F6000EFEBF3E0A8E9B3E020E0321721F0419164
:102F70004D932F5FFACF1092970320919703990FEB
:102F8000922B9093970390919603913061F4109255
:102F90009603909197039093BB009091BC0093FD92
:102FA000F8CF95EC01C095EE9093BC009091BC03D6
:102FB0009230E1F39091BA039F3F79F08091BA0388
:102FC000803241F08091BA03803331F084E005C053
:102FD00081E003C082E001C083E01092BE03109242
:102FE000E0031092BD0308959091BC039111FCCFB2
:102FF00091E09093BC039093BB032FEF2093BA030F
:103000001092B903260F2093B803909397039091E1
:103010009703880F892B80939703809196038130C3
:1030200061F410929603809197038093BB00809186
:10303000BC0083FDF8CF85EC01C085EE8093BC0019
:103040008091BC038130E1F38091B903861710F4BD
:103050006091B903A8E9B3E0E6E7F3E080E0861702
:1030600021F09D9191938F5FFACF08958F929F9257
:10307000AF92BF920F931F93CF93DF93CDB7DEB77D
:10308000A1970FB6F894DEBF0FBECDBF19A2423094
:1030900008F44AE08E010F5D1F4F842E912CA12C65
:1030A000B12CA50194010E946827E62FB901CA013D
:1030B00001501109EA3014F4E05D01C0E95CD80167
:1030C000EC93232B242B252B61F7B80183EE95E09D
:1030D0000E94A40FA1960FB6F894DEBF0FBECDBF1D
:1030E000DF91CF911F910F91BF90AF909F908F90E4
:1030F00008953FB7F89480911E0790911F07A09103
:103100002007B091210726B5A89B05C02F3F19F0D5
:103110000196A11DB11D3FBFBA2FA92F982F882757
:10312000820F911DA11DB11DBC01CD0142E0660FB2
:10313000771F881F991F4A95D1F708958F929F9204
:10314000AF92BF92CF92DF92EF92FF920F931F93B5
:10315000CF93DF936B017C01142F9B01AC010E9484
:10316000FE28882319F06DE872E027C04601570158
:10317000E894B7F82FEF3FEF4FE75FE7C501B401E1
:103180000E94FE2881110DC02FEF3FEF4FE75FE750
:10319000C501B4010E94EC2518161CF461E972E027
:1031A0000CC02FEF3FEF4FE75FE4C701B6010E946D
:1031B000D528181694F465E972E083EE95E0DF9166
:1031C000CF911F910F91FF90EF90DF90CF90BF9024
:1031D000AF909F908F900C94A40F2FEF3FEF4FE78D
:1031E0005FECC701B6010E94EC2587FDE4CF20E02B
:1031F00030E0A901C701B6010E94EC2587FF0BC092
:103200006DE283EE95E00E94D50CEC01F7FAF094A4
:10321000F7F8F09402C0C0E0D0E000E060E070E0B9
:1032200080E09FE3101741F020E030E040E251E4FD
:103230000E9434280F5FF6CFA70196010E94C8278D
:103240006B017C010E94A6284B015C014AE00E94B0
:103250003618C80FD91F1123B9F1C501B4010E9456
:10326000F1259B01AC01C701B6010E94C7276B0184
:103270007C016EE283EE95E00E94D50CC80FD91F49
:1032800020E030E040E251E4C701B6010E9452263E
:103290004B015C010E94A6286B01E12CF12C4AE055
:1032A000C701B6010E943618C80FD91FC701B60161
:1032B0000E94F1259B01AC01C501B4010E94C72702
:1032C0006B017C011150E1F6CE01DF91CF911F918E
:1032D0000F91FF90EF90DF90CF90BF90AF909F90B5
:1032E0008F900895682F70E080E090E04AE00C94A1
:1032F0003618DC015196ED91FC91529790815096D1
:103300008C91809589238083089590E0FC01EC5A8C
:10331000FD4F2491FC01EA5CFD4F3491FC01EE5D10
:10332000FD4FE491EE2309F43CC0222339F1233010
:1033300091F038F42130A9F0223001F584B58F7D69
:1033400012C0273091F02830A1F02430B9F48091D8
:1033500080008F7D03C0809180008F7780938000F4
:103360000DC084B58F7784BD09C08091B0008F7780
:1033700003C08091B0008F7D8093B000F0E0EE0F2D
:10338000FF1FE85EFD4FA591B4919FB7F8946111BE
:1033900004C08C913095382302C0EC913E2B3C93B5
:1033A0009FBF0895CF93DF9390E0FC01EA5CFD4F4F
:1033B0002491FC01EE5DFD4F8491882361F190E042
:1033C000880F991FFC01E65BFD4FC591D491FC016C
:1033D000E85EFD4FA591B491611109C09FB7F894C3
:1033E0008881209582238883EC912E230BC0623044
:1033F00061F49FB7F8948881322F309583238883B6
:10340000EC912E2B2C939FBF06C08FB7F894E881C8
:103410002E2B28838FBFDF91CF9108958F929F929B
:10342000AF92BF92CF92DF92EF92FF926B017C013D
:103430000E9479184B015C01C114D104E104F1042C
:10344000F1F00E947918DC01CB0188199909AA09C9
:10345000BB09883E9340A105B10570F321E0C21A73
:10346000D108E108F10888EE880E83E0981EA11CBF
:10347000B11CC114D104E104F10419F7DDCFFF90B0
:10348000EF90DF90CF90BF90AF909F908F90089576
:103490002FB7F89460911A0770911B0780911C0751
:1034A00090911D072FBF08951F920F920FB60F9294
:1034B00011242F933F938F939F93AF93BF9380914A
:1034C0001A0790911B07A0911C07B0911D0730911E
:1034D000190723E0230F2D3720F40196A11DB11DFC
:1034E00005C026E8230F0296A11DB11D20931907E0
:1034F00080931A0790931B07A0931C07B0931D0796
:1035000080911E0790911F07A0912007B09121077D
:103510000196A11DB11D80931E0790931F07A093D4
:103520002007B0932107BF91AF919F918F913F9159
:103530002F910F900FBE0F901F90189581EF96E07E
:103540000E94220F87EF96E00E94220F83E791E00E
:103550009093FE068093FD0620910907263140F5E1
:10356000283028F02E3030F0ECE6F0E005C0EDE633
:10357000F0E002C0EBE6F0E03081283038F481E082
:1035800090E001C0880F2A95EAF70FC0422F50E063
:103590002E3018F44850510902C04E50510981E0B4
:1035A00090E001C0880F4A95EAF7809583238083D5
:1035B0000895CF93DF93CDB7DEB7E3970FB6F894B6
:1035C000DEBF0FBECDBF789484B5826084BD84B564
:1035D000816084BD85B5826085BD85B5816085BD0E
:1035E00080916E00816080936E00109281008091C6
:1035F000810082608093810080918100816080934E
:103600008100809180008160809380008091B10072
:1036100084608093B1008091B00081608093B0009D
:1036200080917A00846080937A0080917A00826031
:1036300080937A0080917A00816080937A008091F3
:103640007A00806880937A001092C100E091F305BF
:10365000F091F40582E08083E091EF05F091F005B0
:103660001082E091F105F091F2058FEC80831092C9
:10367000FB05E091F705F091F80586E08083E09185
:10368000F505F091F605808180618083E091F50574
:10369000F091F605808188608083E091F505F091D6
:1036A000F605808180688083E091F505F091F6054C
:1036B00080818F7D808362E370E087EF96E00E94D7
:1036C0006E0E61E871E083EE95E00E94B90F1092F2
:1036D00017071092160710921507109214071092F0
:1036E000130710921207109211071092100782E729
:1036F00091E020E030E0FC01459155916591749195
:10370000403855426105710559F54CE0429FC001B2
:10371000439F900D1124FC01EA58FE4F25913491EE
:103720003093110720931007FC01E858FE4F2591B4
:1037300034913093130720931207FC01E658FE4F93
:10374000259134913093150720931407FC01E45818
:10375000FE4F85919491909317078093160707C0A9
:103760002F5F3F4F0C962D30310509F0C4CF80916B
:10377000140790911507892B09F448C02091090777
:103780002631F0F540916800283058F031E02E30B5
:1037900008F430E091E0892F01C0880F3A95EAF7EC
:1037A00001C084E0842B80936800283038F02E30EC
:1037B00040F0263148F4ECE6F0E008C0EDE6F0E039
:1037C00005C0EBE6F0E002C0E0E0F0E03081283038
:1037D00030F491E001C0990F2A95EAF70EC0422F0C
:1037E00050E02E3018F44850510902C04E50510993
:1037F00091E001C0990F4A95EAF7892F832B8083C6
:1038000080911607909117070E948A1180919C025F
:1038100090919D028D5F964091F0809118078E7F68
:10382000809318078FB7F89410929B0210929A0217
:103830002DEF36E030939D0220939C028FBF1092B3
:10384000AD021092AC021092BE031092E0031092EF
:10385000BC0311E01093BB031092960361E082E178
:103860000E94851961E083E10E9485198091B90069
:103870008E7F8093B9008091B9008D7F8093B900CD
:1038800088E48093B80085E48093BC0080E89DE0E4
:103890009093A1028093A00281E89DE090939F0203
:1038A00080939E0264E08EE00E9442101093BD035C
:1038B00088E68093DF031092BE031092E0036FE06E
:1038C00080E896E00E94DB0D81E00E9498170E943C
:1038D000481A6B017C010E94481ADC01CB018C194B
:1038E0009D09AE09BF0984369105A105B10590F483
:1038F00061E088E60E94F4171092AD028093AC025A
:10390000813009F41DC162E070E080E090E00E9427
:103910000E1AE1CF80E0682F677F8FE00E9442108F
:1039200060E082E00E94D21961E082E00E94851985
:103930008BE991E0909301018093000180916900EF
:10394000836080936900E89A789468EE73E080E081
:1039500090E00E940E1A83E991E00E949317109262
:103960009706109295061092920610929106109268
:10397000980684E0809390068FEF8093B402809342
:10398000B3028093AB020E94481A8B0161E08091E0
:1039900090060E94D2198CE896E00E944903FFB677
:1039A000F8948091B202811127C0ECE2F2E0849198
:1039B000E0E4F2E09491E82FF0E0EE0FFF1FE65B09
:1039C000FD4FA591B491EC91E92321F461E08AE0E7
:1039D0000E94851961E08AE00E94D2198CB580614D
:1039E0008CBD8CB580648CBD61E08DE00E94D219E5
:1039F00061E08BE00E94D2198091B2028F5F8093C8
:103A0000B202FFBE83E00E94D00B5AE0F52E8FEF8A
:103A10000E94B803FA94F110FACF60E0809190060A
:103A20000E94851920E030E0A90160E08CE896E072
:103A30000E94F403F82E8093960621E0821749F045
:103A40000E94481A601B710B613D774058F381E07A
:103A500056C02AEA31E040E050E068E08CE896E0A9
:103A60000E94F40382FF03C0F092970610C044E066
:103A7000F42E0E944E0380939606FA94F110F9CF2B
:103A80008A3A11F082E03BC082E0809397068091F1
:103A90009706823031F4C12CD12CE12C30E4F32E86
:103AA00003C0C12CD12C760120E030E0A90167E3EE
:103AB0008CE896E00E94F403A701960169E28CE885
:103AC00096E00E94F40380939606882349F00E94B2
:103AD000481A601B710B613D774030F388E00FC0DE
:103AE00080919706823001F520E030E0A9016AE379
:103AF0008CE896E00E94F403882341F086E08093EE
:103B000091068CE896E00E944903DFC40E944E03B0
:103B1000807C803C19F483E0809397060E944E03DA
:103B20000E944E030E944E038CE896E00E944903D7
:103B30008091AB028F3F49F480E00E94D00B05C01A
:103B400080E896E00E94920DE6CE81E00E94651624
:103B5000811106C080E00E946516882309F4B5C46F
:103B60008091BC068111B1C48091B006803109F505
:103B700082E08093BC061092CE061092CF0610927F
:103B8000D0061092D1068091B1069091B206A0E0C5
:103B9000B0E025E0880F991FAA1FBB1F2A95D1F717
:103BA0008093CA069093CB06A093CC06B093CD0623
:103BB0001FC0803209F089C483E08093BC06409125
:103BC000B3065091B4066091B5067091B606409365
:103BD000CE065093CF066093D0067093D1062AECA0
:103BE00036E089E996E00E94FD14882309F46DC44B
:103BF00089E996E09093D3068093D20681E0809382
:103C0000BB061092BD061092BE061092BF0610921F
:103C1000C0061092C1061092C2061092C3061092FE
:103C2000C4061092C5061092C6061092C7061092DE
:103C3000C8061092C9066BEA71E083EE95E00E9417
:103C4000B90F11E008E68FEB282E82E0382E109392
:103C5000BD030093DF031092BE031092E00360E007
:103C600080E896E00E94DB0D81E00E9498170E9498
:103C7000481A4B015C010E94481ADC01CB018819EB
:103C80009909AA09BB0984369105A105B10508F077
:103C900062C067E088E60E94F4171092AD0280933C
:103CA000AC02873039F062E070E080E090E00E9482
:103CB0000E1AE1CFFE0131965F01812C912C80E834
:103CC00096E00E94920D982F9F70F5E09F120FC012
:103CD00084FB222720F9220F322F330F330F230FBB
:103CE000920F9E83882E881C8824881C08C0829589
:103CF0008F702AE0829F900D1124F5019083939498
:103D0000FFEFAF1ABF0A27E09212D9CF2F8181E0CF
:103D1000881205C0822F90E08053984F04C0822FF4
:103D200090E08459984F39813093E3023A8130937F
:103D3000E4023B813093E5023D813093E6023E810F
:103D40003093E7029093E9028093E8028C8180939C
:103D5000EA022093ED028091E30290E0019665E093
:103D600070E00E949927892B09F0C6C18091060155
:103D7000882309F4C1C1F8946091AE027091AF023A
:103D80008091B0029091B1020E94F32520E030E0D2
:103D900040EF50E40E9434289B01AC010E94C827E8
:103DA00020E030E040E752E40E94342820E030E098
:103DB00040EA50E40E9434286093BB027093BC0236
:103DC0008093BD029093BE021092AE021092AF0299
:103DD0001092B0021092B10220E030E040EA50E4CC
:103DE0000E9452264B015C016093D9027093DA0263
:103DF0008093DB029093DC020E946A14BC0180E095
:103E000090E00E94F1252B013C01C090DD02D09092
:103E1000DE02E090DF02F090E002A70196010E942E
:103E2000EC2587FF09C0C092B702D092B802E09299
:103E3000B902F092BA0208C04092B7025092B8029A
:103E40006092B9027092BA022091B7023091B80222
:103E50004091B9025091BA02C501B4010E94C8272D
:103E60006093DD027093DE028093DF029093E002A4
:103E70000E94A62880E00E94300C809104018823D3
:103E800021F12091B7023091B8024091B9025091CE
:103E9000BA026091DD027091DE028091DF029091A2
:103EA000E0020E94C7270E94A6282091E50281E037
:103EB000820F0E94300C8091E50290E00196909371
:103EC000B6028093B502109204018091E50290E061
:103ED00001962091B5023091B6028217930711F036
:103EE0001093040178948091E30290E001969093FE
:103EF000E2028093E1028091E6021F928F9380910B
:103F0000E7021F928F938091E9028F938091E802DC
:103F10008F93E0ECF1E0FF93EF933F922F920E949A
:103F20004F2B6FEB72E0CE0101960E946615CE0119
:103F300001960E947B14E091EF06F091F0060FB617
:103F4000F894DEBF0FBECDBF309709F4CBC085819A
:103F5000882309F4C7C06FEB72E083EE95E00E94FE
:103F6000B90F4091DD025091DE026091DF02709145
:103F7000E002CE0101960E942C146091E302CE0172
:103F80004C960E94C4146091E402CE0182960E9475
:103F9000C4146091E502CE018E960E94C414BE0145
:103FA000625D7F4FCE0188960E94270F6DEC71E015
:103FB000CE0188960E94D50EBE016E5D7F4F0E9495
:103FC000EE0E6DEC71E00E94D50EBE01645E7F4F77
:103FD0000E94EE0E6FEC71E00E94D50EBE016F5F85
:103FE0007F4F0E94EE0E63ED71E00E94D50EBC0182
:103FF00083EE95E00E94CD0FCE0188960E94220F9D
:10400000CE018E960E94220FCE0182960E94220F30
:10401000CE014C960E94220FCE0101960E94220FE3
:104020004091DD025091DE026091DF027091E0026A
:10403000CE0101960E942C146091E302CE014C96B1
:104040000E94C4146091E402CE0182960E94C414BE
:104050006091E502CE018E960E94C414BE01625D9D
:104060007F4FCE0188960E94270F6DEC71E0CE0144
:1040700088960E94D50EBE016E5D7F4F0E94EE0EA7
:104080006DEC71E00E94D50EBE01645E7F4F0E9410
:10409000EE0E6FEC71E00E94D50EBE016F5F7F4F98
:1040A0000E94EE0E63ED71E00E94D50EBC0186ED1C
:1040B00096E00E94CD0FCE0188960E94220FCE017D
:1040C0008E960E94220FCE0182960E94220FCE0170
:1040D0004C960E94220FCE0101960E94220F0E9450
:1040E000B11406C069ED71E083EE95E00E94B90F4E
:1040F0000E94B114109206018091E30290E00196B3
:104100002091E1023091E2028217930711F010939F
:104110000601B090E502BB2029F08091E5028111F3
:1041200064C15DC18091E4028130B9F780910501DD
:10413000882399F3109205018091E7021F928F93D3
:104140008091E9028F938091E8028F93E0EFF1E094
:10415000FF93EF938CEC92E09F938F930E944F2BF1
:104160006CEC72E0CE0101960E946615CE010196BC
:104170000E947B14E091EF06F091F0060FB6F894E0
:10418000DEBF0FBECDBF309709F487C0858188237D
:1041900009F483C06CEC72E083EE95E00E94B90FE5
:1041A0004091DD025091DE026091DF027091E002E9
:1041B000CE0101960E942C146091E602CE014C962D
:1041C0000E94C41469EF71E0CE0182960E94410FF3
:1041D000BE01645E7F4FCE0182960E94EE0E6FECB0
:1041E00071E00E94D50EBE016F5F7F4F0E94EE0E00
:1041F00063ED71E00E94D50EBC0183EE95E00E9454
:10420000CD0FCE0182960E94220FCE014C960E94C5
:10421000220FCE0101960E94220F4091DD025091A3
:10422000DE026091DF027091E002CE0101960E94F1
:104230002C146091E602CE014C960E94C41469EFE2
:1042400071E0CE0182960E94410FBE01645E7F4FF5
:10425000CE0182960E94EE0E6FEC71E00E94D50EA8
:10426000BE016F5F7F4F0E94EE0E63ED71E00E9412
:10427000D50EBC0186ED96E00E94CD0FCE01829650
:104280000E94220FCE014C960E94220FCE01019671
:104290000E94220F0E94B11406C069ED71E083EE06
:1042A00095E00E94B90F0E94B11462E072E08DEFB8
:1042B00096E00E94B90F68EC70E080E090E00E9408
:1042C0000E1A6CE072E0CE0101960E94410F61EF80
:1042D00076E0CE0101960E94EE0E66E172E00E9449
:1042E000D50EBC018DEF96E00E94CD0FCE01019658
:1042F0000E94220F68EC70E080E090E00E940E1AAD
:104300006091DD027091DE028091DF029091E00207
:104310000E94DA28AB01BC01CE0101960E942C1448
:1043200069E172E0CE014C960E94410FBE016F5FC1
:104330007F4FCE014C960E94EE0E6DE372E00E941C
:10434000D50EBC01CE0182960E94270FCE014C965D
:104350000E94220FCE0101960E94220FBE016E5DC7
:104360007F4F8DEF96E00E94CD0F64E670E080E015
:1043700090E00E940E1A6AE18DEF96E00E94911182
:1043800060E472E08DEF96E00E94A40F68EC70E0AC
:1043900080E090E00E940E1ABE016E5D7F4F83EEBA
:1043A00095E00E94CD0F63E472E083EE95E00E94F9
:1043B000B90FCE0182960E94220F1092DD02109258
:1043C000DE021092DF021092E00260E070E08B2DBE
:1043D0000E94300CB39499E1B912F7CF9ECE809130
:1043E000E402813011F01093050182E592E00E9411
:1043F00093178091E6020E9472198AE592E00E946A
:1044000093178091E7020E9472198AE592E00E9458
:1044100093178090E8029090E902092C000CAA08FA
:10442000BB08B7FE0EC06DE283EE95E00E94D50C8E
:1044300066277727CB01681979098A099B094AE021
:1044400003C04AE0C501B4010E9436188CE592E031
:104450000E9493178091E5020E9472198DEC91E001
:104460000E9493178091E4020E94721981E991E001
:104470000E9493178091E3020E94721986E692E0EF
:104480000E9493176091D9027091DA028091DB0249
:104490009091DC0242E00E949E188FE692E00E941A
:1044A00093176091DD027091DE028091DF0290919E
:1044B000E00242E00E949E1860E472E083EE95E024
:1044C0000E94A40F0E94440DC2CB66E772E083EE07
:1044D00095E00E94B90FFFCF1092E6051092E50516
:1044E00088EE93E0A0E0B0E08093E7059093E805C4
:1044F000A093E905B093EA0525E231E03093E405A5
:104500002093E30525EC30E03093F0052093EF0590
:1045100024EC30E03093F2052093F10520EC30E0FC
:104520003093F4052093F30521EC30E03093F60549
:104530002093F50522EC30E03093F8052093F70541
:1045400026EC30E03093FA052093F9051092FC0533
:104550001092FD051092FE051092FF051092830641
:10456000109282068093840690938506A093860617
:10457000B093870627E331E03093810620938006CD
:10458000109291061092920610929506109297063C
:1045900042E050E060E070E04093990650939A0644
:1045A00060939B0670939C061092B0061092BA0618
:1045B0001092B90629E431E03093B8062093B7068B
:1045C0001092BC06109200071092FF06809301071C
:1045D00090930207A0930307B093040783E791E049
:1045E0009093FE068093FD0610921107109210071B
:1045F00010921307109212071092150710921407C9
:104600001092170710921607809118078E7F8D7FE2
:104610008093180761E089E00E94D21961E089E087
:104620000E948519EFE3F2E0E491E0930D07EBE2DD
:10463000F2E0E491F0E0EE0FFF1FE85EFD4F8591A0
:10464000949190930F0780930E0760E08AE00E9498
:10465000D2198091180781FD04C061E08AE00E94B0
:1046600085198AE080930907E0E4F2E0E491E093A1
:104670000A07ECE2F2E0E491F0E0EE0FFF1FE25FE8
:10468000FD4F8591949190930C0780930B0762E402
:1046900072E087EF96E00E94410F6BE071E081EFDE
:1046A00096E00E94410F1092D9061092D80688EE2B
:1046B00093E0A0E0B0E08093DA069093DB06A0934D
:1046C000DC06B093DD0685E591E09093D7068093F4
:1046D000D6061092F0061092EF061092E2060895A8
:1046E000EF920F931F93CF93DF93E80147FD02C032
:1046F00034E001C034E1042E000C550B57FF03C019
:10470000519541955109E32E022F242FAE010E94AD
:10471000AA23CE01DF91CF911F910F91EF900895C1
:10472000BB27FB015527AA27880F991FAA1FA4178B
:1047300010F0A41B83955051B9F7A05DAA3308F07F
:10474000A95DA193009779F7B111B1931192CB01B3
:104750000C94DC25A9E0B0E0E0EBF3E20C94372701
:104760006A01122FB02E2BE3201720F0FF24F394C0
:10477000F00E02C02CE3F22E0F2D27E0AE014F5FAA
:104780005F4F0E940425BC014981842F89708130CC
:1047900031F0E1FC06C0E0FE06C090E205C09DE2FB
:1047A00003C09BE201C090E05E2D507143FF3CC00E
:1047B000911102C083E001C084E0811718F4212F19
:1047C000281B01C020E051110BC0F601822F30E2FE
:1047D000882319F031938150FBCFC20ED11C20E009
:1047E000992329F0D6019C93F60131966F01C601F9
:1047F0000396E2FE0AC03EE4D6013C9341E41196E2
:104800004C93119712963C9306C03EE6F601308316
:1048100041E641833283FC01322F40E2332309F425
:1048200042C041933150FACF42FF44C0911102C0BF
:1048300083E001C084E0811718F4212F281B01C0F8
:1048400020E051110BC0F601822F30E2882319F0CD
:1048500031938150FBCFC20ED11C20E0992329F067
:10486000D6019C93F60131966F01C6010396E2FED4
:104870000BC039E4D6013C933EE411963C9311976A
:1048800036E412963C9307C039E6F60130833EE6E3
:10489000318336E63283FC01322F40E2332319F0B4
:1048A00041933150FBCFFC01E20FF11D10828EEFDE
:1048B0009FEFA6C021E030E0911102C020E030E07F
:1048C000161617061CF4FB01319602C0E1E0F0E079
:1048D0002E0F3F1FBB2021F0EB2DF0E0319602C0E0
:1048E000E0E0F0E02E0F3F1FE12FF0E02E173F0732
:1048F0001CF4121B212F01C020E08E2D887159F469
:10490000F601822F30E2882319F031938150FBCFDA
:10491000C20ED11C20E0992329F0D6019C93F60108
:1049200031966F0151110BC0F601822F90E388235D
:1049300019F091938150FBCFC20ED11C20E00F2DB6
:10494000060F9A81342F307144FF03C0913309F46C
:104950000150101624F4093018F008E001C001E0FD
:10496000AB0177FF02C040E050E0FB01E41BF50B18
:10497000A1E0B0E0AC0FBD1FEA0FFB1F8EE2A82E36
:104980004B01801A91080B2D10E01195019511092A
:104990004F3FBFEF5B0721F4D601AC9211966D013A
:1049A000641775072CF08416950614F4818101C0F4
:1049B00080E3415051093196D60111967D0140178F
:1049C000510724F0D6018C936701E2CF6417750775
:1049D00039F4963320F4953319F4311101C081E391
:1049E000F6018083F701822F90E2882319F09193DA
:1049F0008150FBCFF701E20FF11D108280E090E0C3
:104A00002996ECE00C945327283008F027E0332750
:104A1000DA01990F311D87FD9160009661057105DE
:104A200039F432602E5F3D9330E32A95E1F7089523
:104A30009F3F30F080387105610509F03C5F3C5FB5
:104A40003D93913008F08068911DDF93CF931F93C1
:104A50000F93FF92EF92192F987F9695E92F9695D5
:104A60009695E90FFF27EE53FF4F99273327EE2442
:104A7000FF24A701E70105900894079428F4360F56
:104A8000E71EF81E491F511D660F771F881F991FCB
:104A90000694A1F70590079428F4E70EF81E491F25
:104AA000561FC11D770F881F991F661F0694A1F717
:104AB0000590079428F4F80E491F561FC71FD11DF3
:104AC000880F991F661F771F0694A1F7059007941A
:104AD00020F4490F561FC71FD81F990F661F771F55
:104AE000881F0694A9F784911095177041F0D69508
:104AF000C79557954795F794E7941A95C1F7E8E657
:104B0000F0E0689415901591359165919591059017
:104B10007FE27395E118F10A430B560BC90BD009DC
:104B2000C0F7E10CF11E431F561FC91FD01D7EF4B4
:104B3000703311F48A95E6CFE894015030F0080FF5
:104B40000AF40027021708F4202F2395022F7A3346
:104B500028F079E37D932A95E9F710C07D932A9593
:104B600089F6069497956795379517951794E118E8
:104B7000F10A430B560BC90BD00998F023957E918F
:104B800073957A3308F070E37C932013B8F77E9125
:104B900070617D9330F0839571E37D9370E32A9586
:104BA000E1F71124EF90FF900F911F91CF91DF91CA
:104BB000992787FD90950895DC01FC01672F71917D
:104BC0007723E1F7329704C07C916D9370836291F3
:104BD000AE17BF07C8F308950E942E2608F481E09F
:104BE0000895E89409C097FB3EF4909580957095E0
:104BF00061957F4F8F4F9F4F9923A9F0F92F96E929
:104C0000BB279395F695879577956795B795F1119D
:104C1000F8CFFAF4BB0F11F460FF1BC06F5F7F4F3A
:104C20008F4F9F4F16C0882311F096E911C077234C
:104C300021F09EE8872F762F05C0662371F096E855
:104C4000862F70E060E02AF09A95660F771F881F24
:104C5000DAF7880F9695879597F90895990F0008C8
:104C6000550FAA0BE0E8FEEF16161706E807F9073E
:104C7000C0F012161306E407F50798F0621B730BD9
:104C8000840B950B39F40A2661F0232B242B252B5A
:104C900021F408950A2609F4A140A6958FEF811DFD
:104CA000811D08950E9465260C94D6260E94C82670
:104CB00038F00E94CF2620F0952311F00C94BF26E7
:104CC0000C94C52611240C940A270E94E72670F341
:104CD000959FC1F3950F50E0551F629FF001729FA1
:104CE000BB27F00DB11D639FAA27F00DB11DAA1FB0
:104CF000649F6627B00DA11D661F829F2227B00DFD
:104D0000A11D621F739FB00DA11D621F839FA00D87
:104D1000611D221F749F3327A00D611D231F849FD7
:104D2000600D211D822F762F6A2F11249F5750402E
:104D30009AF0F1F088234AF0EE0FFF1FBB1F661FA9
:104D4000771F881F91505040A9F79E3F510580F072
:104D50000C94BF260C940A275F3FE4F3983ED4F3EB
:104D6000869577956795B795F795E7959F5FC1F716
:104D7000FE2B880F911D9695879597F9089597F9C1
:104D80009F6780E870E060E008959FEF80EC0895F1
:104D900000240A941616170618060906089500241A
:104DA0000A9412161306140605060895092E039494
:104DB000000C11F4882352F0BB0F40F4BF2B11F408
:104DC00060FF04C06F5F7F4F8F4F9F4F089557FD67
:104DD0009058440F551F59F05F3F71F04795880F69
:104DE00097FB991F61F09F3F79F087950895121600
:104DF00013061406551FF2CF4695F1DF08C01616AC
:104E000017061806991FF1CF86957105610508945C
:104E10000895E894BB2766277727CB0197F9089573
:104E2000F999FECF92BD81BDF89A992780B5089572
:104E3000262FF999FECF1FBA92BD81BD20BD0FB6B6
:104E4000F894FA9AF99A0FBE019608950E948A275B
:104E5000A59F900DB49F900DA49F800D911D1124CE
:104E600008952F923F924F925F926F927F928F920E
:104E70009F92AF92BF92CF92DF92EF92FF920F93E9
:104E80001F93CF93DF93CDB7DEB7CA1BDB0B0FB6F3
:104E9000F894DEBF0FBECDBF09942A8839884888B0
:104EA0005F846E847D848C849B84AA84B984C88446
:104EB000DF80EE80FD800C811B81AA81B981CE0F3D
:104EC000D11D0FB6F894DEBF0FBECDBFED01089522
:104ED000A1E21A2EAA1BBB1BFD010DC0AA1FBB1FFE
:104EE000EE1FFF1FA217B307E407F50720F0A21B70
:104EF000B30BE40BF50B661F771F881F991F1A94DD
:104F000069F760957095809590959B01AC01BD0106
:104F1000CF010895A29FB001B39FC001A39F700D60
:104F2000811D1124911DB29F700D811D1124911DB1
:104F3000089597FB072E16F4009407D077FD09D04B
:104F40000E94AD2707FC05D03EF4909581959F4FB8
:104F50000895709561957F4F0895AA1BBB1B51E181
:104F600007C0AA1FBB1FA617B70710F0A61BB70BD9
:104F7000881F991F5A95A9F780959095BC01CD017E
:104F80000895EE0FFF1F0590F491E02D09945058FD
:104F9000BB27AA270E94DF270C94D6260E94C8268A
:104FA00038F00E94CF2620F039F49F3F19F426F400
:104FB0000C94C5260EF4E095E7FB0C94BF26E92F70
:104FC0000E94E72658F3BA1762077307840795070C
:104FD00020F079F4A6F50C9409270EF4E0950B2E39
:104FE000BA2FA02D0B01B90190010C01CA01A0013B
:104FF0001124FF27591B99F0593F50F4503E68F196
:105000001A16F040A22F232F342F4427585FF3CFD6
:10501000469537952795A795F0405395C9F77EF4A7
:105020001F16BA0B620B730B840BBAF09150A1F0F0
:10503000FF0FBB1F661F771F881FC2F70EC0BA0F76
:10504000621F731F841F48F4879577956795B795FE
:10505000F7959E3F08F0B0CF9395880F08F09927F9
:10506000EE0F9795879508950E9448280C94D626B0
:105070000E94CF2658F00E94C82640F029F45F3FD6
:1050800029F00C94BF2651110C940A270C94C526C4
:105090000E94E72668F39923B1F3552391F3951BFA
:1050A000550BBB27AA2762177307840738F09F5F49
:1050B0005F4F220F331F441FAA1FA9F335D00E2EB6
:1050C0003AF0E0E832D091505040E695001CCAF723
:1050D0002BD0FE2F29D0660F771F881FBB1F2617E6
:1050E00037074807AB07B0E809F0BB0B802DBF01BD
:1050F000FF2793585F4F3AF09E3F510578F00C948C
:10510000BF260C940A275F3FE4F3983ED4F38695BC
:1051100077956795B795F7959F5FC9F7880F911DAC
:105120009695879597F90895E1E0660F771F881F98
:10513000BB1F621773078407BA0720F0621B730B4B
:10514000840BBA0BEE1F88F7E09508950E94EF26B6
:1051500088F09F5798F0B92F9927B751B0F0E1F038
:10516000660F771F881F991F1AF0BA95C9F714C0E8
:10517000B13091F00E940927B1E008950C940927FD
:10518000672F782F8827B85F39F0B93FCCF3869521
:1051900077956795B395D9F73EF49095809570957E
:1051A00061957F4F8F4F9F4F08950E942E2608F4E0
:1051B0008FEF08950E94EF26E8F09E37E8F09639C9
:1051C000B8F49E3848F4672F782F8827985FF9CF76
:1051D00086957795679593959539D0F3B62FB170ED
:1051E0006B0F711D811D20F48795779567959395B9
:1051F0000C9403290C941E290C940A270E942E2635
:10520000880B990B0895882371F4772321F0985027
:10521000872B762F07C0662311F499270DC0905174
:10522000862B70E060E02AF09A95660F771F881F42
:10523000DAF7880F9695879597F908959F3F31F093
:10524000915020F4879577956795B795880F911DB4
:105250009695879597F908950F931F93CF93DF93B2
:105260008230910510F482E090E0E0912407F09103
:10527000250720E030E0A0E0B0E0309719F1408150
:1052800051810281138148175907C8F08417950787
:1052900069F4109731F012960C93129713961C93A1
:1052A00027C0009324071093250722C0211531053C
:1052B00019F04217530718F49A01BD01EF01DF01FD
:1052C000F801DBCF21153105F9F0281B390B24300B
:1052D000310580F48A819B816115710521F0FB0104
:1052E0009383828304C09093250780932407FE0153
:1052F000329644C0FE01E20FF31F81939193225036
:105300003109398328833AC020912207309123073D
:10531000232B41F420911D0130911E01309323076E
:105320002093220720911B0130911C01211531058A
:1053300041F42DB73EB740911F0150912001241B2D
:10534000350BE0912207F0912307E217F307A0F451
:105350002E1B3F0B2817390778F0AC014E5F5F4FCB
:105360002417350748F04E0F5F1F509323074093D3
:1053700022078193919302C0E0E0F0E0CF01DF913A
:10538000CF911F910F910895CF93DF93009709F468
:1053900081C0FC01329713821282A0912407B09140
:1053A0002507109781F420813181820F931F20916E
:1053B0002207309123072817390751F5F093230767
:1053C000E093220767C0ED0120E030E0CE17DF0751
:1053D00040F44A815B819E0141155105F1F0EA01DB
:1053E000F5CFD383C28340815181840F951FC817A5
:1053F000D90759F488819981840F951F029691836A
:1054000080838A819B81938382832115310529F4CE
:10541000F0932507E09324073DC0E901FB83EA836D
:1054200049915991C40FD51FEC17FD0761F4808194
:105430009181840F951F0296E90199838883828167
:1054400093819B838A83E0E0F0E012968D919C919A
:105450001397009719F0FD01DC01F7CF8D919C9116
:1054600011979D012E5F3F4F820F931F20912207BE
:10547000309123072817390769F4309729F41092DF
:1054800025071092240702C013821282B0932307CB
:10549000A0932207DF91CF910895A0E0B0E0E3E56B
:1054A000FAE20C943527EC01009721F4CB010E941D
:1054B0002C29B4C0FC01E60FF71F9C0122503109D2
:1054C000E217F30708F4A8C0D9010D911C911197B8
:1054D00006171707B0F00530110508F49BC0C80186
:1054E00004978617970708F495C002501109061B08
:1054F000170B019311936D937C93CF010E94C429E4
:1055000089C05B01A01AB10A4C01800E911EA091C6
:105510002407B0912507612C712CE12CF12C1097F8
:1055200009F446C08D919C911197A815B905B1F564
:105530006C0142E0C40ED11CCA14DB0478F14C01AA
:105540008A189B08640142E0C40ED11C1296BC90DC
:1055500012971396AC91B5E0CB16D10440F0B2820D
:10556000A38391828082D9016D937C9309C00E5FE1
:105570001F4F800F911FF90191838083EB2DFA2F2C
:10558000E114F10431F0D7011396FC93EE931297D6
:1055900041C0F0932507E09324073CC068167906C4
:1055A00008F43C017D0112960D90BC91A02DB7CF5F
:1055B000809122079091230788169906E1F46616D8
:1055C0007706C8F480911B0190911C01009741F46B
:1055D0008DB79EB740911F0150912001841B950B00
:1055E000E817F907C8F4F0932307E0932207F901BD
:1055F000718360830FC0CB010E942C297C0100972E
:1056000059F0A801BE010E94252BCE010E94C42999
:10561000C70104C0CE0102C080E090E0CDB7DEB784
:10562000EEE00C94512781E090E0F8940C94022E67
:10563000FB01DC0104C08D910190801921F44150DF
:105640005040C8F7881B990B0895FB01DC0102C08C
:1056500001900D9241505040D8F70895FC0181917E
:10566000861721F08823D9F7992708953197CF011C
:105670000895FB01DC0101900D920020E1F70895EF
:10568000FB01DC014150504048F001900D92002098
:10569000C9F701C01D9241505040E0F70895AEE0B7
:1056A000B0E0E5E5FBE20C943F270D891E8986E01A
:1056B0008C831A8309838FEF9FE79E838D83AE01CE
:1056C000475E5F4F6F89788DCE0101960E94712BE6
:1056D000EF81F885E00FF11F10822E96E4E00C9424
:1056E0005B27ABE0B0E0E7E7FBE20C9431276C010D
:1056F0007B018A01FC0117821682838181FFCCC164
:10570000CE0101963C01F6019381F70193FD85914D
:1057100093FF81917F01882309F4BAC1853239F45E
:1057200093FD859193FF81917F01853229F4B60124
:1057300090E00E94682DE7CF912C212C312CFFE1C5
:10574000F315D8F08B3279F038F4803279F0833267
:10575000A1F4232D20611DC08D3261F0803369F4E6
:10576000232D216016C0832D8260382EE32DE46046
:105770003E2E2AC0F32DF8601DC037FC2DC020ED51
:10578000280F2A3040F08E32B9F436FC81C1232D27
:105790002064322E19C036FE06C08AE0989E200D85
:1057A0001124922E11C0EAE02E9E200D1124222EEB
:1057B000F32DF0623F2E08C08C3621F4832D8068D3
:1057C000382E02C0883641F4F70193FD859193FF8E
:1057D00081917F018111B3CF982F9F7D9554933094
:1057E00028F40C5F1F4F9FE399830DC0833631F07F
:1057F000833771F0833509F059C021C0F8018081E9
:1058000089830E5F1F4F88248394912C530113C00A
:105810002801F2E04F0E511CF801A080B18036FE45
:1058200003C0692D70E002C06FEF7FEFC5010E94D9
:105830005D2D4C018201F32DFF773F2E16C028010C
:1058400022E0420E511CF801A080B18036FE03C058
:10585000692D70E002C06FEF7FEFC5010E94522DED
:105860004C01F32DF0683F2E820133FC1BC0822DCA
:1058700090E088169906B0F4B60180E290E00E94AC
:10588000682D2A94F4CFF50137FC859137FE81917C
:105890005F01B60190E00E94682D21102A9421E05A
:1058A000821A91088114910471F7E8C0843611F0CE
:1058B000893641F5F80137FE07C060817181828128
:1058C00093810C5F1F4F08C060817181072E000C0F
:1058D000880B990B0E5F1F4FF32DFF763F2E97FF1E
:1058E00009C090958095709561957F4F8F4F9F4F20
:1058F000F0683F2E2AE030E0A3010E94A42D882EFC
:10590000861845C0853731F4232D2F7EB22E2AE02C
:1059100030E025C0932D997FB92E8F36C1F018F451
:10592000883579F0B5C0803719F0883721F0B0C0DC
:10593000E92FE061BE2EB4FE0DC0FB2DF460BF2E3A
:1059400009C034FE0AC0292F2660B22E06C028E006
:1059500030E005C020E130E002C020E132E0F80193
:10596000B7FE07C060817181828193810C5F1F4FF8
:1059700006C06081718180E090E00E5F1F4FA3013F
:105980000E94A42D882E8618FB2DFF773F2E36FE11
:105990000DC0232D2E7FA22E891458F434FE0BC087
:1059A00032FC09C0832D8E7EA82E05C0B82CA32CF6
:1059B00003C0B82C01C0B92CA4FE0FC0FE01E80D35
:1059C000F11D8081803321F49A2D997EA92E09C082
:1059D000A2FE06C0B394B39404C08A2D867809F061
:1059E000B394A3FC11C0A0FE06C0B21488F4280C26
:1059F000922C9B180EC0B21460F4B60180E290E0C5
:105A00000E94682DB394F7CFB21418F42B1802C07B
:105A1000982C212CA4FE10C0B60180E390E00E94D7
:105A2000682DA2FE17C0A1FC03C088E790E002C069
:105A300088E590E0B6010CC08A2D867859F0A1FE69
:105A400002C08BE201C080E2A7FC8DE2B60190E0CB
:105A50000E94682D891438F4B60180E390E00E941A
:105A6000682D9A94F7CF8A94F301E80DF11D808197
:105A7000B60190E00E94682D8110F5CF222009F434
:105A800042CEB60180E290E00E94682D2A94F6CFC3
:105A9000F6018681978102C08FEF9FEF2B96E2E19E
:105AA0000C944D27FC010590615070400110D8F70F
:105AB000809590958E0F9F1F0895FC016150704056
:105AC00001900110D8F7809590958E0F9F1F089533
:105AD0000F931F93CF93DF93FB01238121FD03C01D
