:100000000C9436010C941D110C94F6100C945A1398
:100010000C9403140C94DF130C945E010C945E0199
:100020000C945E010C945E010C945E010C945E01D4
:100030000C945E010C945E010C945E010C945E01C4
:100040000C94E81B0C945E010C94E0110C94BA1112
:100050000C945E010C945E010C945E010C945E01A4
:100060000C942C120C945E0100407A10F35A00A0FC
:10007000724E18090010A5D4E80000E87648170071
:1000800000E40B54020000CA9A3B000000E1F505B1
:10009000000080969800000040420F000000A086FB
:1000A00001000000102700000000E803000000002D
:1000B0006400000000000A000000000001000000D1
:1000C00000002C76D888DC674F0823DFC1DFAE59EB
:1000D000E1B1B796E5E3E453C63AE651997696E87E
:1000E000E6C28426EB898C9B62ED407C6FFCEFBC02
:1000F0009C9F40F2BAA56FA5F490055A2AF75C932D
:100100006B6CF9676DC11BFCE0E40D47FEF520E662
:10011000B500D0ED902E0300943577050080841E45
:10012000080000204E0A000000C80C333333330FA0
:10013000986E12831141EF8D2114893BE65516CF3D
:10014000FEE6DB18D1844B381BF77C1D901DA4BB49
:10015000E424203284725E228100C9F124ECA1E5FE
:100160003D277C3C3E5E2B3D3F2F5B5D3B2C2A2296
:100170005C0000C201000100110011000C0000E150
:1001800000000A002500250021000096000019004B
:10019000390039003600127A00001F004600460080
:1001A00044008070000022004D004D004A00004BCA
:1001B00000003600750075007200403800004A00EB
:1001C0009C009C009900802500007200EC00EC006F
:1001D000E900C0120000E900DA01DA01D701600984
:1001E0000000D701B603B603B303B0040000B303A5
:1001F0006E076E076B07580200006E07DC0EDC0E00
:10020000D80E2C010000DC0EC11DC11DBE1D00005A
:10021000000023002600290000000000250028001F
:100220002B00040404040404040402020202020277
:1002300003030303030301020408102040800102AA
:10024000040810200102040810200000000024000F
:1002500027002A0000000008000201000003040734
:1002600000000000000000008823321C11241FBE83
:10027000CFEFD8E0DEBFCDBF12E0A0E0B1E0EAE40E
:10028000FDE502C005900D92AE3AB107D9F727E01F
:10029000AEEAB2E001C01D92A635B207E1F711E067
:1002A000C5E3D1E004C02197FE010E945728C43362
:1002B000D107C9F70E94501C0C94982E0C94000092
:1002C000DC015996ED91FC915A973097B9F08389EA
:1002D0009489A589B6894285538564857585841B73
:1002E000950BA60BB70B811520E89207A105B10568
:1002F00038F08FEF9FE7A0E0B0E0089580E090E055
:100300000895CF93DF931F92CDB7DEB76983DC01E9
:10031000ED91FC910280F381E02D41E050E0BE01BF
:100320006F5F7F4F09950F90DF91CF9108950895EA
:1003300080E090E008958091C3029091C402A09162
:10034000C502B091C6020196A11DB11D8093C302E2
:100350009093C402A093C502B093C602089520E012
:1003600001972FEF8F3F9207D9F7089561E0FC01C5
:1003700084810C94191B8091C0028F3F39F48EBD8B
:1003800000000DB407FEFDCF8EB50895F894E091FE
:10039000BB02F091BC0290818091BA02892B8083CC
:1003A00028E080E0E091BE02F091BF0230819091A0
:1003B000BD02392B3083880FA091B802B091B902E9
:1003C0004C913091B702342309F0816030819095CF
:1003D0009323908300000000215021F77894089522
:1003E0000F931F93CF93DF93EB010E94DC1B8B01D4
:1003F0000E94BB018F3F49F00E94DC1B601B710B08
:100400006C177D07A8F380E001C081E0DF91CF91F8
:100410001F910F910895CF93DF93EC018E81882374
:1004200089F08F8198859C012F5F3F4F38872F83FC
:100430008230924018F40E94BB01F3CFCE010E949B
:10044000B6011E82DF91CF9108959091C0029F3F27
:1004500039F48EBD00000DB407FEFDCF8EB50895B2
:10046000F89428E0E091BE02F091BF023081409103
:10047000BD02942F909539233083A091BB02B09197
:10048000BC029091BA023C9187FF02C0932B02C03C
:10049000909593239C939081942B9083880F215067
:1004A00009F70000000000000000E091BE02F0919A
:1004B000BF0290818091BD028095892380837894CA
:1004C00008958F929F92AF92BF92FF920F931F93C6
:1004D000CF93DF93EC01F62E49015A010E940B02E3
:1004E00060E08C810E94191B6CE271E0CE010E94D9
:1004F000F0018F2D80640E94250208E110E0D501F3
:10050000C401002E04C0B695A795979587950A94C7
:10051000D2F70E94250208501109083F8FEF1807F3
:1005200071F7FF2029F088E0F81204C087E803C0C3
:1005300085E901C08FEF0E94250210E00E94BB01F7
:100540008A8787FF04C01F3F11F01F5FF7CFDF913D
:10055000CF911F910F91FF90BF90AF909F908F9080
:100560000895AF92BF92CF92DF92EF92FF920F93D6
:100570001F93CF93DF93EC016901C801820F931F92
:100580008130924008F070C08E81882371F088819C
:100590009981AA81BB8184179507A607B70729F41B
:1005A0008F819885C816D906B0F5488359836A8328
:1005B0007B838B85833039F089E0440F551F661F9C
:1005C000771F8A95D1F79A01AB0161E1CE010E94B4
:1005D0006102882319F083E08D8346C00E94DC1BF2
:1005E0005B010E94BB018A878F3F49F40E94DC1B9C
:1005F0006A197B096D327140A0F38FE003C08E3F12
:1006000031F08DE08D83CE010E94B6012DC0188699
:100610001F8281E08E838F8198858C159D0540F423
:100620000E94BB018F819885019698878F83F3CFB5
:100630006701E00EF11EEC14FD0431F00E94BB01D5
:10064000F60181936F01F7CF8F819885080F191FED
:1006500018870F838985882319F00115124048F007
:10066000CE010E940B0205C0CE010E94B60180E0BF
:1006700001C081E0DF91CF911F910F91FF90EF902A
:10068000DF90CF90BF90AF900895CF92DF92EF921E
:10069000FF920F931F93CF93DF93EC0179014115E4
:1006A00051056105710511F482E165C08B858330C8
:1006B00039F0E9E0440F551F661F771FEA95D1F71F
:1006C0009A01AB0168E1CE010E946102882311F01A
:1006D00084E051C08C8597013E5F6901882321F138
:1006E000F70100E010E0819190E081279C0144E057
:1006F000359527954A95E1F782279327102F0027F4
:10070000082719279C01322F22273295307F022794
:10071000132775E0880F991F7A95E1F708271927A5
:10072000CE16DF0601F702C00FEF1FEF8EEF0E941B
:100730002502F70181917F010E942502CE14DF047A
:10074000C1F7812F0E942502802F0E9425020E945E
:10075000BB018A878F71853031F081E18D83CE01B5
:100760000E94B60109C068E572E0CE010E94F00166
:10077000811107C085E18D83CE010E94B60180E022
:1007800013C020E030E0A9016DE0CE010E946102BB
:10079000811104C00E94BB01882311F084E1EBCFDA
:1007A000CE010E94B60181E0DF91CF911F910F91A0
:1007B000FF90EF90DF90CF9008958091AE02882354
:1007C000A9F14091000150910101609102017091E5
:1007D000030125EF33E08091F5059091F6050E9425
:1007E0004503811102C080E008954091AF0250910D
:1007F000B0026091B1027091B202411551056105DC
:10080000710591F025EF33E08091F5059091F605A3
:100810000E944503882339F31092AF021092B00270
:100820001092B1021092B2021092AE0281E00895CD
:100830008F929F92AF92BF92EF92FF920F931F936E
:10084000CF934B015C01C42F809100019091010175
:10085000A0910201B091030188159905AA05BB0575
:1008600001F10E94DD03811102C080E020C085EF0C
:10087000E82E83E0F82E00E012E020E030E0B50141
:10088000A4018091F5059091F6050E94B10288239C
:1008900061F38092000190920101A0920201B09256
:1008A00003018091AE02C82BC093AE0281E0CF91CC
:1008B0001F910F91FF90EF90BF90AF909F908F90FE
:1008C00008954F925F926F927F928F929F92AF9214
:1008D000BF92CF92DF92EF92FF920F931F93CF932D
:1008E000DF93EC01423051056105710510F480E0A1
:1008F00078C089859A85AB85BC850196A11DB11DFF
:1009000084179507A607B70790F3CB88DC88ED8896
:10091000FE888F89803129F4BB27A72F962F852F3A
:1009200009C0DB01CA01E7E0B695A79597958795C1
:10093000EA95D1F7480159012A013B01C80ED91E99
:10094000EA1EFB1E8091000190910101A09102011D
:10095000B0910301C816D906EA06FB0681F48F8917
:100960008031A9F4B301A201552766277727440FE8
:10097000551FFA01EB50FC4F9182808219C040E074
:10098000C701B6010E9418048111E9CFB0CFB301AD
:10099000A2014F77552766277727440F551F440F2D
:1009A000551FFA01EB50FC4F80829182A282B382E4
:1009B0008091AE0281608093AE028A89823080F09D
:1009C0008D819E81AF81B885C80ED91EEA1EFB1E9F
:1009D000C092AF02D092B002E092B102F092B202A5
:1009E00081E0DF91CF911F910F91FF90EF90DF9009
:1009F000CF90BF90AF909F908F907F906F905F90BF
:100A00004F9008958F929F92AF92BF92CF92DF92B4
:100A1000EF92FF920F931F93CF93DF93FC01818599
:100A20009285A385B4850196A11DB11D84179507F4
:100A3000A607B70710F480E05BC083889488A58878
:100A4000B6888789803129F4BB27A72F962F852F59
:100A500009C0DB01CA01C7E0B695A79597958795B0
:100A6000CA95D1F7E9016A017B018F01BC01CD0173
:100A7000680D791D8A1D9B1D8090000190900101D9
:100A8000A0900201B0900301681579058A059B05C5
:100A900091F4F80187898031A1F4DD24EE24FF244C
:100AA000C601880F991FFC01EB50FC4F808191819A
:100AB000A0E0B0E018C040E00E9418048111E9CF26
:100AC000BACFE894C7F8DD24EE24FF24C601880FCE
:100AD000991F880F991FFC01EB50FC4F8081918179
:100AE000A281B381BF7088839983AA83BB8381E08D
:100AF000DF91CF911F910F91FF90EF90DF90CF90FA
:100B0000BF90AF909F908F9008958F929F92AF92D9
:100B1000BF92CF92DF92EF92FF920F931F93CF93EA
:100B2000DF93EC018D81811102C080E078C00B89D8
:100B30001C892D893E890417150726073707A8F356
:100B40006A017B01823029F4CA86DB86EC86FD8649
:100B50000DC0C114D104E104F10451F41E821F82BE
:100B6000188619861A861B861C861D8681E057C04A
:100B70008A849B84AC84BD84EB8DFC8D258530E01C
:100B8000275F3F4FB501A401415051096109710927
:100B9000022E04C076956795579547950A94D2F72B
:100BA000D701C6010197A109B10904C0B695A7955F
:100BB000979587952A95D2F784179507A607B707C3
:100BC00020F089288A288B2871F44F89588D698DE7
:100BD0007A8D4E835F83688779874C015D018E0132
:100BE0000A5F1F4F16C0841B950BA60BB70BF5CFE2
:100BF0004E815F816885798598018B8D9C8D0E94DF
:100C0000020591E0891A9108A108B108882309F426
:100C10008CCF81149104A104B10451F795CFDF91D9
:100C2000CF911F910F91FF90EF90DF90CF90BF90E9
:100C3000AF909F908F9008953F924F925F926F92E6
:100C40007F928F929F92AF92BF92CF92DF92EF925C
:100C5000FF920F931F93CF93DF93CDB7DEB72C97FF
:100C60000FB6F894DEBF0FBECDBF5C01DC015B9612
:100C70008D909C905C971696CD90DD90ED90FC90B9
:100C80001997C114D104E104F10439F0BFEFCB1A74
:100C9000DB0AEB0AFB0A312C07C0F401C080D180CB
:100CA000E280F38033243394F40181859285A38517
:100CB000B4859C01AD012F5F3F4F4F4F5F4F298798
:100CC0003A874B875C87260137011D821E821F826F
:100CD0001886F40181859285A385B4852D813E8196
:100CE0004F815885281739074A075B0708F063C00A
:100CF00089859A85AB85BC858C159D05AE05BF059C
:100D000050F482E0C82ED12CE12CF12C92E0492E37
:100D1000512C612C712C9E012F5F3F4FB701A60112
:100D2000C4010E940205882309F445C089819A8183
:100D3000AB81BC81892B8A2B8B2B41F0260137019B
:100D40009FEF491A590A690A790A05C0C414D504E3
:100D5000E604F70491F02D813E814F8158852F5F85
:100D60003F4F4F4F5F4F2D833E834F8358873FEF59
:100D7000C31AD30AE30AF30AACCF0FEF1FEF2FEF2A
:100D80003FE0B301A201C4010E946104882399F0ED
:100D9000D50116964D915D916D917C9119974115F4
:100DA00051056105710549F093018201C4010E945A
:100DB0006104811102C080E02AC0D50116964D92CF
:100DC0005D926D927C921997332051F0D301C2014C
:100DD0000196A11DB11DF40180839183A283B38389
:100DE000F5018789908DA18DB28D892B8A2B8B2B54
:100DF00069F4D50157964D925D926D927C925A9707
:100E000014968C911497806814968C9381E02C969C
:100E10000FB6F894DEBF0FBECDBFDF91CF911F910B
:100E20000F91FF90EF90DF90CF90BF90AF909F9089
:100E30008F907F906F905F904F903F9008954F926A
:100E40005F926F927F92AF92BF92CF92DF92EF92BA
:100E5000FF920F931F93CF93DF931F92CDB7DEB70F
:100E6000FC012581222309F4C1C0848180FFBEC01A
:100E700083899489A589B68942845384648475845E
:100E800084159505A605B70509F4B0C06F01520198
:100E9000F1E0BF22D6015B968D919C915C97B301E6
:100EA000A20139E076956795579547953A95D1F720
:100EB000223071F4FC01828D938DA48DB58D8A0151
:100EC0009B01080F191F2A1F3B1FC901B8014AC007
:100ED000DC0114961C9111501423A114B104F9F4EF
:100EE00011111DC045284628472851F4F60187896D
:100EF000908DA18DB28D86839783A087B1870FC017
:100F0000D60116964D915D916D917C911997960140
:100F10002A5F3F4F0E940205882309F467C0F6014B
:100F2000238D348D86819781A085B1850297A10993
:100F3000B109AC01BD01F901058404C0440F551F7E
:100F4000661F771F0A94D2F786859785A089B18995
:100F5000840F951FA61FB71FBC01CD01610F711D26
:100F6000811D911DD60114962C9126FF0DC0409035
:100F7000000150900101609002017090030146163B
:100F800057066806790699F440E00E941804882301
:100F900069F1F501EB50FC4FDE0111969F012F5FC7
:100FA0003F4F2E173F0799F081918D93FACFFE01A5
:100FB00031967F0101E010E09501AB01BC01809109
:100FC000F5059091F6050E94B102882379F0F601AB
:100FD00082859385A485B5850196A11DB11D828763
:100FE0009387A487B587898190E002C08FEF9FEF38
:100FF0000F90DF91CF911F910F91FF90EF90DF90B5
:10100000CF90BF90AF907F906F905F904F9008957A
:10101000FC01818D928D009711F00C941F078FEFCA
:101020009FEF08950F931F93CF93DF93FC01818D62
:10103000928D0097B9F0EF010E941F078C010F3FBE
:101040008FEF180791F0898D9A8DFC0142855385A9
:101050006485758541505109610971090E948505B2
:10106000C80105C080E090E002C08FEF9FEFDF91E4
:10107000CF911F910F910895CF93DF93EC018D8154
:10108000882379F18C8187FF28C06E857F858889C8
:10109000998941E00E941804882319F1EA8980E2C5
:1010A000E89FF0011124EB50FC4F3097D1F08D8177
:1010B000823040F48B899C89AD89BE89848F958F5D
:1010C000A68FB78F8F89988DA98DBA8D938F828FB8
:1010D000B58BA48B8C818F778C83DF91CF910C940F
:1010E000DD0380E0DF91CF9108958F929F92AF92C0
:1010F000BF92CF92DF92EF92FF920F931F93CF9305
:10110000DF9300D000D0CDB7DEB77C0180E2689FCE
:10111000F0011124EB50FC4F9385917121F0842F45
:10112000827409F08FC0142FD70152966C93529796
:101130004091000150910101609102017091030101
:101140001E964D935D936D937C9351974489558979
:1011500060E070E0BA0155274427828D938DA0E0AE
:10116000B0E0482B592B6A2B7B2BD70157964D9318
:101170005D936D937C935A978385887159F4848D20
:10118000958DA68DB78DF701838B948BA58BB68B30
:1011900081E012C0803109F055C097012D5E3F4FAC
:1011A000D7015B968D919C915C970E94B615882320
:1011B00009F448C084E0F7018583812F8F70D7013F
:1011C00014968C931497F701168217821086118655
:1011D0001A961D921D921D921C921D9716FF34C0E7
:1011E00015968C91813071F511FF2CC0F701438960
:1011F000548965897689452B462B472B09F461C0B4
:1012000040E050E0BA01C7010E9485058823D1F073
:10121000F7018788908CA18CB28CC38CD48C82E02F
:1012200090E0A0E0B0E0F60180839183A283B383D5
:101230009E012F5F3F4FB501A401C6010E94020528
:10124000811104C080E03DC081E03BC000E010E0BF
:101250009801B501A401C6010E946104882391F39D
:1012600089809A80AB80BC80D60157968C91803162
:1012700029F088EF9FEFAFEFBFE004C088EF9FEF4A
:10128000A0E0B0E088169906AA06BB0688F2D7014E
:1012900057961D921D921D921C925A97F701138A20
:1012A000148A158A168A848180688483C7010E9403
:1012B0003C08882339F240E050E0BA01C7010E949F
:1012C00085050F900F900F900F90DF91CF911F9198
:1012D0000F91FF90EF90DF90CF90BF90AF909F90D5
:1012E0008F9008952F923F924F925F926F927F92CC
:1012F0008F929F92AF92BF92CF92DF92EF92FF9226
:101300000F931F93CF93DF93CDB7DEB72B970FB615
:10131000F894DEBF0FBECDBF7C01FE013196CE0139
:101320000C966F0130E23193E817F907E1F7DA0123
:1013300030E087E09D91992331F19E3231F48A307B
:1013400009F46BC138E08AE0F5CFE2E6F1E04491C0
:10135000442321F031969413FACF5FC1831708F428
:101360005CC14FED490F4E3508F057C141E0430FC6
:10137000F601E30FF11D3FE9390F3A3108F49052BD
:101380009083342FD7CF8981803209F446C1322E21
:101390008B01DB015B968D919C915C97F701948F9B
:1013A000838F16961D921D921D921C921997FB0118
:1013B0001286138614861586B12CF80182859385D2
:1013C000A485B585438954896589768984179507ED
:1013D000A607B70708F05BC025E0B695A7959795D7
:1013E00087952A95D1F7F82FFF70AF2ED801159663
:1013F0008C91823008F411C1C8010E941F0797FD2B
:101400000CC1F80182859385A485B5854F96A11DF1
:10141000B11D82879387A487B587F0E2AF9EB001A4
:1014200011246B507C4F6115710509F4F6C0DB0186
:101430008C91882319F0853EC1F4F1C0B1100EC023
:10144000F701A28A8091000190910101A09102010F
:10145000B091030186879787A08BB18BDB018C91BC
:10146000882399F0BB24B394A8CF4BE050E0C60189
:101470000E94AE2B892B09F0A0CF832D807380337F
:1014800009F4CBC0432D6A2DC4C0BB24B394832D73
:101490008271823109F0C1C0BB20C1F0F7016685BD
:1014A00077858089918941E00E941804882309F496
:1014B000B4C0D70152968C91B0E28B9FC001112429
:1014C0008B509C4F009709F078C0A7C0F801858128
:1014D000823009F4A2C0C8010E941C06882309F4C6
:1014E0009CC0D8015B96ED91FC915C9716968D900F
:1014F0009D90AD90BC901997B2E08B1A9108A1080D
:10150000B108058404C0880C991CAA1CBB1C0A9451
:10151000D2F786859785A089B189880E991EAA1E63
:10152000BB1E2480E1E08E1A9108A108B108222098
:1015300009F124013501420C511C611C711C0E94EF
:10154000DD03882309F469C0E5EFF3E0119225E09B
:10155000E53FF207D9F740920001509201016092F5
:101560000201709203018091AE0281608093AE020D
:101570002A94DDCFD8015B96ED91FC915C9780E0D9
:1015800092E0A0E0B0E0058404C0880F991FAA1F74
:10159000BB1F0A94D2F7F80143895489658976897B
:1015A000840F951FA61FB71F838B948BA58BB68BBB
:1015B000D70152961C9285EF93E020E2FC01119234
:1015C0002A95E9F72BE0F601DC0101900D922A95AE
:1015D000E1F721E238E2DC0151963C932E935097DB
:1015E00040E058E01F965C934E931E9753963C93B1
:1015F0002E93529759963C932E93589757965C93F7
:101600004E9356970E94DD03882339F0432DF7014E
:101610006289C7010E94750805C080E003C0B1104F
:1016200021CF0ECF2B960FB6F894DEBF0FBECDBFE5
:10163000DF91CF911F910F91FF90EF90DF90CF90AE
:10164000BF90AF909F908F907F906F905F904F90E2
:101650003F902F900895CF93DF93EC010E943C08B8
:10166000882311F01D8281E0DF91CF910895FC0164
:10167000818D928D009711F00C943C0808952F9263
:101680003F924F925F926F927F928F929F92AF9212
:10169000BF92CF92DF92EF92FF920F931F93CF935F
:1016A000DF9300D000D0CDB7DEB78C015B011A010B
:1016B000DC0115968C9115978130C9F414968C91A4
:1016C00081FF15C082FF1DC0F801438954896589D7
:1016D000768982859385A485B58584179507A607A5
:1016E000B70779F0C8010E94850581110AC081E021
:1016F00090E0D80113969C938E93129780E090E02F
:1017000036C1610183C05B968D919C915C97FC0111
:1017100074802FEF270D2A013B0139E076946794FE
:10172000579447943A95D1F7722E74207A01F1E0DC
:10173000FF22772009F476C080E092E08E199F099D
:1017400046018C159D0508F44C01D8015B962D913E
:101750003C915C9716968D919D910D90BC91A02D1A
:101760000297A109B109F901058404C0880F991FE6
:10177000AA1FBB1F0A94D2F74685578560897189D5
:10178000840F951FA61FB71F9C01AD01270D311DAA
:10179000411D511D29013A01811432E0930609F0DF
:1017A00088C08091000190910101A0910201B09147
:1017B0000301481659066A067B0659F48FEF9FEF1E
:1017C000DC018093000190930101A0930201B0938A
:1017D00003019501B301A2018091F5059091F605F1
:1017E0000E944503882309F482CF9EEFB91AC818D6
:1017F000D908F80182859385A485B585880D991D42
:10180000A11DB11D82879387A487B587D8011A9639
:101810004D915D916D917C911D97C114D10409F09A
:1018200072CF87C0E114F10409F086CF16964D916E
:101830005D916D917C911997411551056105710577
:1018400059F457968D919D910D90BC91A02D0097C4
:10185000A105B10541F521C09E012F5F3F4F0E94B8
:101860000205882309F44BCF89819A81AB81BC8121
:10187000F801238D348DF9012789203129F048EFB3
:101880005FEF6FEF7FE004C048EF5FEF60E070E074
:1018900084179507A607B70730F0C8010E941C06F9
:1018A00081114ACF24CFF80186839783A087B1871F
:1018B00043CFE114F10429F5D8011A964D915D91B9
:1018C0006D917C911D9753968D919D910D90BC913A
:1018D000A02D481759076A077B0798F00E94DD037F
:1018E000882309F404CF40920001509201016092D4
:1018F0000201709203018091AE0281608093AE027A
:1019000008C041E0C301B2010E941804882309F411
:10191000EECED501F701EB50FC4F9F01280D391D8C
:101920002E173F0719F08D918193FACFA80CB91C9F
:101930005ECFF80183899489A589B68984179507B4
:10194000A607B70738F4438B548B658B768B84815D
:1019500080688483F801848183FD02C0C10107C0CF
:10196000C8010E943C08882309F4C1CEF7CF0F902C
:101970000F900F900F90DF91CF911F910F91FF90DB
:10198000EF90DF90CF90BF90AF909F908F907F901F
:101990006F905F904F903F902F900895CF93DF937B
:1019A0001F92CDB7DEB7698341E050E0BE016F5FA3
:1019B0007F4F0E943F0B0F90DF91CF910895CF93FF
:1019C000DF93EC01898D9A8D009739F481E090E0E6
:1019D0009B838A8380E090E00BC0FC01138212821B
:1019E0000E943F0BE98DFA8D22813381232B71F701
:1019F000DF91CF9108959CB59C7F282F2370922B67
:101A00009CBD2DB582FB992790F9822F8E7F892B63
:101A10008DBD0895FC01DB0112968D919C91139769
:101A2000938382838BE591E09183808314968C91DC
:101A30001497848315968C911597858316964D91EE
:101A40005D916D917C91199746835783608771876B
:101A50001A964D915D916D917C911D9742875387A8
:101A6000648775871E964D915D916D917C9151971C
:101A700046875787608B718B52968C915297828BD9
:101A800053964D915D916D917C915697438B548BFC
:101A9000658B768B57964D915D916D917C915A97A0
:101AA000478B508F618F728F5B968D919C915C9765
:101AB000948F838F08951F93CF93DF93172FC82F91
:101AC000D0E0CE010E94AE27612FCE010196DF91BA
:101AD000CF911F910C94AE270895CF92DF92EF9291
:101AE000FF920F931F93CF93DF936C017A018B01C9
:101AF000C0E0D0E0CE15DF0581F0D8016D918D01F9
:101B0000D601ED91FC910190F081E02DC60109957F
:101B1000892B11F02196EECF7E01C701DF91CF9185
:101B20001F910F91FF90EF90DF90CF900895FC01EF
:101B3000538D448D252F30E0842F90E0821B930B32
:101B4000541710F0CF96089501970895FC01918DD8
:101B5000828D981761F0828DDF01A80FB11D5D960F
:101B60008C91928D9F5F9F73928F90E008958FEF7D
:101B70009FEF0895FC01918D828D981731F0828D31
:101B8000E80FF11D858D90E008958FEF9FEF089588
:101B9000FC01918D228D892F90E0805C9F4F821BEC
:101BA00091098F739927089587EF95E00E94C80DDA
:101BB00021E0892B09F420E0822F0895FC01848D17
:101BC000DF01A80FB11DA35ABF4F2C91848D90E067
:101BD00001968F739927848FA689B7892C93A08942
:101BE000B1898C91837080648C93938D848D9813CC
:101BF00006C00288F389E02D80818F7D808308955F
:101C0000EF92FF920F931F93CF93DF93EC0181E04C
:101C1000888F9B8D8C8D981305C0E889F989808108
:101C200085FD26C0F62E0B8D10E00F5F1F4F0F7342
:101C30001127E02E8C8DE8120CC00FB607FCFACFEE
:101C4000E889F989808185FFF5CFCE010E94DE0DFC
:101C5000F1CF8B8DFE01E80FF11DE35AFF4FF082AB
:101C60009FB7F8940B8FEA89FB89808180620AC054
:101C70009FB7F894EE89FF896083E889F9898081AC
:101C80008370806480839FBF81E090E0DF91CF917B
:101C90001F910F91FF90EF900895CF93DF93EC0188
:101CA000888D8823C9F0EA89FB89808185FD05C07C
:101CB000A889B9898C9186FD0FC00FB607FCF5CFB6
:101CC000808185FFF2CFA889B9898C9185FFEDCFFE
:101CD000CE010E94DE0DE7CFDF91CF91089580E025
:101CE00090E0892B29F00E94D40D81110C94000002
:101CF000089585ED8093BC008091BC0084FDFCCFED
:101D00001092D003089540916303262F30E0240FF2
:101D1000311D21323105DCF42091D0032430C9F487
:101D2000FC0180E090E0861758F430916303219124
:101D3000DC01AD5BBC4FA30FB11D2C930196F3CF1B
:101D400080916303680F6093630380E0089581E0EE
:101D5000089582E00895089508950895E091C202DB
:101D60008091C102E81730F4F0E0E657FC4F808123
:101D700090E008958FEF9FEF08959091C2028091B7
:101D8000C102981750F4E92FF0E0E657FC4F20818C
:101D900030E09F5F9093C20202C02FEF3FEFC90176
:101DA00008958091C10290E02091C202821B9109A6
:101DB0000895CF92DF92EF92FF920F931F93CF93EC
:101DC000DF937C01CB018A012091D103222389F08A
:101DD000EB016B01C40ED51ECC15DD0569F06991D0
:101DE000D701ED91FC910190F081E02DC70109959B
:101DF000F3CF642F0E94830EC801DF91CF911F9112
:101E00000F91FF90EF90DF90CF900895CF93DF93E5
:101E10001F92CDB7DEB769832091D1032223D1F081
:101E20002091F403203240F021E030E0FC013383C4
:101E3000228380E090E015C08091D203E82FF0E08B
:101E4000ED52FC4F998190838F5F8093D2038093F2
:101E5000F40305C061E0CE0101960E94830E81E08B
:101E600090E00F90DF91CF910895209188033091F9
:101E700089032817390781F490918603809187039D
:101E8000981751F0E0918603F0E0ED5FFC4F808100
:101E9000082E000C990B08958FEF9FEF0895209165
:101EA0008803309189032817390739F48FB7F894DC
:101EB00010928703109286038FBF089520918803A4
:101EC000309189032817390771F480918703209195
:101ED000860390E0805C9F4F821B910960E470E074
:101EE0000E942F28089580E090E0089520918803B3
:101EF0003091890328173907B9F4909186038091AE
:101F00008703981789F0E0918603F0E0ED5FFC4FBE
:101F100080812091860330E02F5F3F4F2F7333275E
:101F20002093860390E008958FEF9FEF08950E941D
:101F3000A92BDF92EF92FF920F931F93CF93DF9322
:101F4000EC01298D3A8D2115310529F481E090E0CD
:101F50009B838A835AC0162FDFB6F8948B8D81FD40
:101F60004DC0CE010E940D1B898D9A8D05960E9451
:101F7000AF018B8D98E0E92EF12C01E081FF1AC0B2
:101F8000812F802321F0CE010E940D1B06C0E9891C
:101F9000FA8990818889892B8083898D9A8D0E9406
:101FA000AF01000F81E0E81AF10851F7CE010E945D
:101FB0000D1B1CC0812F802339F0E989FA8990819B
:101FC0008889892B808303C0CE010E940D1B898DD7
:101FD0009A8D0E94AF01000F81E0E81AF10851F7D5
:101FE000E989FA8990818889892B8083DFBE898D70
:101FF0009A8D0E94AF0121E030E007C0E989FA899B
:1020000090818889892B8083AFCFC901DF91CF91DF
:102010001F910F91FF90EF90DF9008950F931F9302
:10202000CF93DF93EC0188819981009729F02A8171
:102030003B812617370788F48B016F5F7F4F0E9423
:10204000E32A009761F0998388831B830A832C819C
:102050003D81232B11F4FC01108281E001C080E05E
:10206000DF91CF911F910F910895EF92FF920F93FF
:102070001F93CF93DF936115710511F480E01CC0AD
:1020800041155105C1F07B01EC018C819D818A01D4
:10209000080F191FB801CE010E940E10882371F39A
:1020A000288139818C819D81B701820F931F0E9405
:1020B000CF2B1D830C8381E0DF91CF911F910F9176
:1020C000FF90EF900895CF93DF93EC018881998181
:1020D000009711F00E945A2A198218821D821C82D0
:1020E0001B821A82DF91CF910895CF93DF93EC0189
:1020F0006115710561F0FB0101900020E9F731974E
:10210000AF01461B570B0E943510811103C0CE0151
:102110000E946310CE01DF91CF910895CF93DF939A
:10212000EC01FB0144815581608171810E94351071
:10213000811103C0CE010E946310CE01DF91CF91C7
:102140000895EF92FF920F931F93CF93DF93EC01CB
:102150007B018A01BA010E940E10811104C0CE01D8
:102160000E94631007C01D830C83B7018881998189
:102170000E94CF2BCE01DF91CF911F910F91FF9045
:10218000EF900895FC01808191810C945A2AFB0103
:10219000DC0111961C921E9213961C921E921297AD
:1021A00015961C921E9214978617970749F0608126
:1021B00071816115710521F0448155810C94A11044
:1021C0000895FC01118210821382128215821482FA
:1021D0006115710551F0FB0101900020E9F731977D
:1021E000AF01461B570B0C94A11008951F920F923C
:1021F0000FB60F9211242F933F934F935F936F93DA
:102200007F938F939F93AF93BF93EF93FF93E0914F
:102210000601F09107010995FF91EF91BF91AF91F0
:102220009F918F917F916F915F914F913F912F91EE
:102230000F900FBE0F901F9018951F920F920FB620
:102240000F9211242F933F934F935F936F937F933C
:102250008F939F93AF93BF93EF93FF93E09104010C
:10226000F09105010995FF91EF91BF91AF919F9179
:102270008F917F916F915F914F913F912F910F902F
:102280000FBE0F901F9018950F931F93CF93DF935E
:10229000EC010E94DC1B688779878A879B87E8812D
:1022A000F9810284F385E02DCE01099597FF17C0CF
:1022B0000E94DC1B088519852A853B85DC01CB0142
:1022C000801B910BA20BB30B0C811D812E813F81D2
:1022D00080179107A207B30710F38FEF9FEFDF91ED
:1022E000CF911F910F9108956115710579F0FB0150
:1022F00001900020E9F73197AF01461B570BDC0135
:10230000ED91FC910280F381E02D099480E090E052
:1023100008950F931F93CF93DF93EC010E947411E4
:102320008C0164E572E0CE010E947411800F911F50
:10233000DF91CF911F910F9108950F931F93CF932A
:10234000DF93EC01FB014481558160817181E8815B
:10235000F9810280F381E02D09958C0164E572E03A
:10236000CE010E947411800F911FDF91CF911F91B8
:102370000F9108951F920F920FB60F9211242F9371
:102380003F934F935F936F937F938F939F93AF93FD
:10239000BF93EF93FF9387EF95E00E94DE0DFF91CF
:1023A000EF91BF91AF919F918F917F916F915F91CD
:1023B0004F913F912F910F900FBE0F901F90189546
:1023C0001F920F920FB60F9211242F938F939F930A
:1023D000EF93FF93E0910706F09108068081E0916A
:1023E0000D06F0910E0682FD12C0908180911006BC
:1023F0008F5F8F7320911106821751F0E0911006C4
:10240000F0E0E950FA4F958F8093100601C080816B
:10241000FF91EF919F918F912F910F900FBE0F9091
:102420001F901895CF93C62F91E09093D10398E613
:102430009093F3031092D2031092F403682F84E96F
:1024400096E00E94060F6C2F84E996E00E94060F2A
:1024500081E0CF910C9451181F920F920FB60F92FA
:1024600011242F933F934F935F936F937F938F9399
:102470009F93AF93BF93EF93FF938091B900887FB1
:10248000803609F49CC068F5883209F45BC090F48A
:10249000803109F454C038F4882309F4F6C0883038
:1024A00009F44DC0F6C0883109F44CC0803209F4FB
:1024B0005DC0EFC0803409F468C048F4803309F48B
:1024C00055C0883309F0E5C08093CE03D8C080356D
:1024D00009F44FC0883509F45DC0883409F0D9C0CB
:1024E000D6C0883909F4C7C0A8F4883709F467C092
:1024F00038F4883609F463C0803709F460C0C9C075
:10250000883809F4B8C0803909F45FC0803809F010
:10251000C0C05BC0803B09F486C038F4803A09F43F
:1025200066C0883A09F47FC0B4C0803C09F4A7C0F3
:10253000883C09F4A4C0883B09F48AC0AAC08091F1
:10254000AB0310C09091CD038091CC03981770F528
:10255000E091CD0381E08E0F8093CD03F0E0E45550
:10256000FC4F80818093BB0085EC86C08093CE03B6
:102570008EC0E091CD0381E08E0F8093CD038091DA
:10258000BB00F0E0E455FC4F80839091CD03809137
:10259000CC036EC0E091CD0381E08E0F8093CD031C
:1025A0008091BB00F0E0E455FC4F80838091CF0325
:1025B00081116DC081E08093AA0384EA61C083E049
:1025C0008093D00310928503CFCF80918503803212
:1025D00008F051C0E091850381E08E0F8093850360
:1025E0008091BB00F0E0EB59FC4F8083BDCF85ECC0
:1025F0008093BC001092D00380918503803230F428
:10260000E0918503F0E0EB59FC4F10826091850367
:1026100070E0E091B302F091B40285E693E0099591
:102620001092850336C084E08093D0031092640337
:1026300010926303E091B502F091B6020995809182
:102640006303811105C081E080936303109243030B
:10265000E091640381E08E0F80936403F0E0ED5B12
:10266000FC4F80818093BB00909164038091630351
:10267000981708F479CF85E88093BC000AC085ECF0
:102680008093BC001092D00304C01092CE030E942D
:10269000790EFF91EF91BF91AF919F918F917F91B3
:1026A0006F915F914F913F912F910F900FBE0F90BF
:1026B0001F9018951F920F920FB60F921124EF9250
:1026C000FF920F931F932F933F934F935F936F93BB
:1026D0007F938F939F93AF93BF93CF93DF93EF93AA
:1026E000FF93C0918803D0918903209709F450C0CB
:1026F0009B8DEE85FF858D8591FF04C09081892398
:1027000029F446C09081892309F042C08B899C89B5
:102710000E94AF0188E0E82EF12C10E001E08D89E5
:102720009E890E94AF01EE85FF8590818D8589236A
:1027300011F0102B03C0802F80951823000F81E02B
:10274000E81AF10861F78F89988D0E94AF018B8D8F
:1027500081FD1095809187032091860390E001967A
:102760008F73992730E08217930779F0E091870300
:10277000F0E0ED5FFC4F10838091870390E00196BD
:102780008F7399278093870303C08B8D81608B8F14
:10279000FF91EF91DF91CF91BF91AF919F918F9179
:1027A0007F916F915F914F913F912F911F910F9169
:1027B000FF90EF900F900FBE0F901F9018951F92F3
:1027C0000F920FB60F9211242F933F934F935F9365
:1027D0006F937F938F939F93AF93BF93EF93FF93E9
:1027E0000E945A13FF91EF91BF91AF919F918F91EA
:1027F0007F916F915F914F913F912F910F900FBEFD
:102800000F901F9018951F920F920FB60F921124E0
:102810002F933F934F935F936F937F938F939F93E8
:10282000AF93BF93EF93FF930E945A13FF91EF91E1
:10283000BF91AF919F918F917F916F915F914F91D8
:102840003F912F910F900FBE0F901F9018951F93DF
:10285000CF93DF93EC01162F1B821A8288EE93E050
:10286000A0E0B0E08C839D83AE83BF8385E291E0DE
:10287000998388831C8A1B8A1E8A1D8A188E1F8A48
:102880001A8E198E8B8D8E7F8D7F8B8F61E0812FBD
:102890000E94661B61E0812F0E94191B812F90E02E
:1028A000FC01EA5CFD4FE491E88BFC01EE5DFD4F1D
:1028B000E491F0E0EE0FFF1FE85EFD4F85919491EB
:1028C0009A8B898B60E08AE00E94661B8B8D81FD6C
:1028D00004C061E08AE00E94191B8AE08C87E0E472
:1028E000F2E0E491ED87ECE2F2E0E491F0E0EE0F4B
:1028F000FF1FE25FFD4F859194919F878E87DF9147
:10290000CF911F910895EF92FF920F931F93CF9352
:10291000DF93EC017B018A011B821A8288EE93E02F
:10292000A0E0B0E08C839D83AE83BF8383E791E01A
:10293000998388838DE190E00E94C2299A8F898FC4
:10294000009779F02DE1F701DC0101900D922A95B5
:10295000E1F74CE050E0B801CE010C960E94D62B76
:10296000188EDF91CF911F910F91FF90EF900895F6
:10297000FC012485263140F5283028F02E3030F037
:10298000ECE6F0E005C0EDE6F0E002C0EBE6F0E0DA
:102990003081283038F481E090E001C0880F2A951A
:1029A000EAF70FC0422F50E02E3018F4485051097A
:1029B00002C04E50510981E090E001C0880F4A9555
:1029C000EAF78095832380830895EF92FF920F9317
:1029D0001F93CF93DF93CDB7DEB7A1970FB6F894CF
:1029E000DEBF0FBECDBF7C01CB01BA01F701118262
:1029F000108213821282158214828E010F5F1F4F84
:102A000022E044E00E940624009769F0FC01019056
:102A10000020E9F73197AF01481B590BBC01C701F2
:102A20000E94A11003C0C7010E946310A1960FB6B7
:102A3000F894DEBF0FBECDBFDF91CF911F910F91F4
:102A4000FF90EF900895CF9380E090E00E94A6273A
:102A5000C82F81E090E00E94A6272C2F30E0A9012A
:102A6000582BCA01CF910895CF93DF93FC01828147
:102A700093819093ED068093EC0684819581A681E5
:102A8000B7818093EE069093EF06A093F006B09383
:102A9000F10680859185A285B3858093F206909397
:102AA000F306A093F406B093F506EF012C96A6EF7B
:102AB000B6E089918D9387E0A330B807D1F7818D77
:102AC000928D90930407809303078AEE96E0DF913E
:102AD000CF9108958091030790910407009761F0CA
:102AE0000E942B0B80910307909104070E945A2AA1
:102AF00010920407109203070895EF92FF920F932C
:102B00001F93CF93DF93CDB7DEB729970FB6F89415
:102B1000DEBF0FBECDBF8C01862FF801118210825F
:102B200013821282158214824AE09E012F5F3F4F6A
:102B30007901B90190E00E942624F701019000205C
:102B4000E9F73197AF014E195F09B701C8010E943B
:102B5000A11029960FB6F894DEBF0FBECDBFDF914E
:102B6000CF911F910F91FF90EF9008954F925F9238
:102B70006F927F92AF92BF92CF92DF92EF92FF92CD
:102B80000F931F93CF93DF9300D000D0CDB7DEB764
:102B90008C0149835A836B837C835901C12CD12CCE
:102BA0007601412C82E0582E612C712C49815A818A
:102BB0006B817C819E012F5F3F4FC8010E940205FF
:102BC000882351F1D301C201F801058404C0880FA4
:102BD000991FAA1FBB1F0A94D2F7C80ED91EEA1E5E
:102BE000FB1E49815A816B817C818789803129F064
:102BF00088EF9FEFAFEFBFE004C088EF9FEFA0E04A
:102C0000B0E0481759076A077B0780F2F501C082D8
:102C1000D182E282F38281E00F900F900F900F90AB
:102C2000DF91CF911F910F91FF90EF90DF90CF90A8
:102C3000BF90AF907F906F905F904F9008952F92CC
:102C40003F924F925F926F927F928F929F92AF923C
:102C5000BF92CF92DF92EF92FF920F931F93CF9389
:102C6000DF93CDB7DEB7C656D1090FB6F894DEBFF5
:102C70000FBECDBF6C015B014E018EE1880E911C31
:102C80006BEC76E0C4010E940A0D1C821B828BE56E
:102C900091E09A8389831E8275018E010F5F1F4F19
:102CA000240118016FE270E0C7010E94C42B009755
:102CB00009F442C0F70120812F3221F4FFEFEF1A0F
:102CC000FF0AF0CF8E198D3008F08CE0682E712C41
:102CD000A301B701CE01885A9F4F0E94D62BE8E589
:102CE000F0E0EC0FFD1FE60DF71D1082C8010E94F9
:102CF0002B0BF8018581882351F01EAE1DAE8BE5AC
:102D000091E09CAF8BAF21961FAE219721C021E0AF
:102D1000AE01485A5F4FB201C8010E947209882370
:102D200061F3E60CF71CC2010E942B0B942D852D3C
:102D30002801092F182FB6CFC7018A199B09A7961A
:102D40009FAF8EAFA797B201CE01CB960E940A0D1E
:102D5000A796EEADFFADA797AE0EBF1EF501808121
:102D6000811109C0BE01655C7F4FC1010E940A0D3F
:102D70004EE652E044C019A218A28BE591E09F8F65
:102D80008E8F1BA221968FAD2197811113C0F60162
:102D90001382128288EE93E0A0E0B0E084839583F2
:102DA000A683B78383E791E091838083128E118E8F
:102DB000148629C0825023E1A501823040F46BECD7
:102DC00076E0C4010E94720981110DC0E0CFBE01FE
:102DD000655C7F4FC4010E9472098823C1F2CE0155
:102DE000CB960E942B0B49A95AA96BA97CA9C401B7
:102DF0000E948505B401C1010E940A0DA501B1011F
:102E0000C6010E948314C601CA59DF4F0FB6F89459
:102E1000DEBF0FBECDBFDF91CF911F910F91FF900D
:102E2000EF90DF90CF90BF90AF909F908F907F906A
:102E30006F905F904F903F902F9008958F929F9248
:102E4000AF92BF92CF92DF92EF92FF92CF93DF9338
:102E5000C82F80EA96E09093F6058093F505CC2381
:102E600069F1C53010F080E00CC140E060E070E036
:102E7000CB010E9418048823B1F320E1C29FC00156
:102E800011248B519C4FFC01E254FE4F20812F777F
:102E900051F73C96408151816281738144365105DE
:102EA0006105710500F33497C080D180E280F38022
:102EB000C114D104E104F10421F4D5CFC12CD12CEB
:102EC000760140E0C701B6010E941804882359F238
:102ED00080910004909101048115924021F6A09107
:102EE0000504AA2309F4BFCF609103047091040480
:102EF0006115710509F4B7CF20910204222309F46A
:102F0000B2CFA093BF062093B10680E030E041E04D
:102F100050E0C82FFA01082E02C0EE0FFF1F0A94DE
:102F2000E2F72E173F0739F08F5FC83091F789E03D
:102F30008093BA0698CF8093BA0620910B04309103
:102F40000C042115310519F040E050E008C0209133
:102F5000190430911A0440911B0450911C042093D1
:102F6000B2063093B3064093B4065093B5064601BB
:102F70005701860E971EA11CB11C8092C00690922C
:102F8000C106A092C206B092C306E0910604F09179
:102F90000704F093C606E093C506B0E00E94BC2784
:102FA000860E971EA81EB91E8092C7069092C8066C
:102FB000A092C906B092CA0685E0EE0FFF1F8A955F
:102FC000E1F7E150FE4FEF2FFF27E6958E0E9F1E93
:102FD000A11CB11C8092BB069092BC06A092BD06BB
:102FE000B092BE06209108043091090421153105E4
:102FF00021F0A90160E070E008C0409115045091F3
:1030000016046091170470911804D701C60188193D
:103010009909AA09BB09840F951FA61FB71F04C0F1
:10302000B695A79597958795CA95D2F78093B606DA
:103030009093B706A093B806B093B906853F2FE0EA
:103040009207A105B10510F48CE018C0853F9F4F91
:10305000A105B10510F480E111C080912104909187
:103060002204A0912304B09124048093C706909376
:10307000C806A093C906B093CA0680E28093C4062E
:1030800081E0DF91CF91FF90EF90DF90CF90BF90E4
:10309000AF909F908F900895BC0187EF95E00C94BE
:1030A0007411282F3091F403313208F04AC0809116
:1030B000D0038111FCCF9091F30342E04093D00301
:1030C0002093CF032FEF2093CE031092CD033093A4
:1030D000CC03E3EDF3E0ACEAB3E020E0321721F0FB
:1030E00041914D932F5FFACF1092AB032091AB0328
:1030F000990F922B9093AB039091AA03913061F4B6
:103100001092AA039091AB039093BB009091BC00E6
:1031100093FDF8CF95EC01C095EE9093BC00909193
:10312000D0039230E1F39091CE039F3F79F08091EC
:10313000CE03803241F08091CE03803331F084E0C1
:1031400005C081E003C082E001C083E01092D20399
:103150001092F4031092D10308959091D00391112D
:10316000FCCF91E09093D0039093CF032FEF209367
:10317000CE031092CD03260F2093CC039093AB0384
:103180009091AB03880F892B8093AB038091AA03A6
:10319000813061F41092AA038091AB038093BB004D
:1031A0008091BC0083FDF8CF85EC01C085EE809353
:1031B000BC008091D0038130E1F38091CD0386176C
:1031C00010F46091CD03ACEAB3E0EAE8F3E080E00C
:1031D000861721F09D9191938F5FFACF0895CF923A
:1031E000DF92EF92FF92CF93DF93EC011A8E198E4C
:1031F000188E1F8A1E8A1D8A82E791E020E030E047
:10320000FC01C590D590E590F490C416D506E6066D
:10321000F70619F54CE0429FC001439F900D112421
:10322000FC01EA58FE4F259134913C8B2B8BFC011D
:10323000E858FE4F259134913E8B2D8BFC01E658CA
:10324000FE4F25913491388F2F8BFC01E458FE4FAF
:10325000859194919A8F898F09C02F5F3F4F0C966B
:103260002D30310509F0CCCF1C8A1B8A8F89988DAF
:10327000892B09F447C09C85963108F03FC03091F6
:103280006800983058F021E09E3008F420E091E08A
:10329000892F01C0880F2A95EAF701C084E0832BAB
:1032A000809368002C85283038F02E3040F026318D
:1032B00048F4ECE6F0E008C0EDE6F0E005C0EBE62F
:1032C000F0E002C0E0E0F0E03081283030F491E03E
:1032D00001C0990F2A95EAF70EC0422F50E02E3018
:1032E00018F44850510902C04E50510991E001C0F4
:1032F000990F4A95EAF7892F832B8083898D9A8DC0
:103300000E94AF018091880390918903C817D90763
:1033100071F08B8D8E7F8B8F8FB7F894109287030F
:1033200010928603D0938903C09388038FBFDF91E7
:10333000CF91FF90EF90DF90CF900895EF92FF92A2
:103340000F931F93CF93DF9300D0CDB7DEB78C01DF
:103350007B0166E572E00E94E110C7010E94441102
:1033600097FD0EC08A30910559F089831A8241E099
:1033700050E0BE016F5F7F4FC8010E943510EDCF56
:10338000C8010F900F90DF91CF911F910F91FF9087
:10339000EF9008958F929F92AF92BF920F931F93D9
:1033A000CF93DF93CDB7DEB7A1970FB6F894DEBF0A
:1033B0000FBECDBF19A2423008F44AE08E010F5D66
:1033C0001F4F842E912CA12CB12CA50194010E9499
:1033D000FE27E62FB901CA0101501109EA3014F4A1
:1033E000E05D01C0E95CD801EC93232B242B252B55
:1033F00061F7B80187EF95E00E947411A1960FB6AE
:10340000F894DEBF0FBECDBFDF91CF911F910F911A
:10341000BF90AF909F908F9008953FB7F8948091A0
:103420004E0790914F07A0915007B091510726B5D4
:10343000A89B05C02F3F19F00196A11DB11D3FBFEC
:10344000BA2FA92F982F8827820F911DA11DB11D7A
:10345000BC01CD0142E0660F771F881F991F4A9576
:10346000D1F708958F929F92AF92BF92CF92DF9241
:10347000EF92FF920F931F93CF93DF936B017C0129
:10348000142F9B01AC010E949429882319F061EA52
:1034900072E027C046015701E894B7F82FEF3FEFDD
:1034A0004FE75FE7C501B4010E94942981110DC067
:1034B0002FEF3FEF4FE75FE7C501B4010E9482267F
:1034C00018161CF465EA72E00CC02FEF3FEF4FE7CF
:1034D0005FE4C701B6010E946B29181694F469EAEB
:1034E00072E087EF95E0DF91CF911F910F91FF90F0
:1034F000EF90DF90CF90BF90AF909F908F900C9403
:1035000074112FEF3FEF4FE75FECC701B6010E9448
:10351000822687FDE4CF20E030E0A901C701B60193
:103520000E94822687FF0BC06DE287EF95E00E9424
:10353000000EEC01F7FAF094F7F8F09402C0C0E046
:10354000D0E000E060E070E080E09FE3101741F021
:1035500020E030E040E251E40E94CA280F5FF6CF3D
:10356000A70196010E945E286B017C010E943C2904
:103570004B015C014AE00E94CA19C80FD91F1123F0
:10358000B9F1C501B4010E9487269B01AC01C701B6
:10359000B6010E945D286B017C016EE287EF95E029
:1035A0000E94000EC80FD91F20E030E040E251E435
:1035B000C701B6010E94E8264B015C010E943C292C
:1035C0006B01E12CF12C4AE0C701B6010E94CA1937
:1035D000C80FD91FC701B6010E9487269B01AC0105
:1035E000C501B4010E945D286B017C011150E1F618
:1035F000CE01DF91CF911F910F91FF90EF90DF905F
:10360000CF90BF90AF909F908F900895682F70E0FB
:1036100080E090E04AE00C94CA19DC015196ED91EB
:10362000FC915297908150968C918095892380834C
:10363000089590E0FC01EC5AFD4F2491FC01EA5CF6
:10364000FD4F3491FC01EE5DFD4FE491EE2309F452
:103650003CC0222339F1233091F038F42130A9F015
:10366000223001F584B58F7D12C0273091F02830CB
:10367000A1F02430B9F4809180008F7D03C0809147
:1036800080008F77809380000DC084B58F7784BDD4
:1036900009C08091B0008F7703C08091B0008F7D0A
:1036A0008093B000F0E0EE0FFF1FE85EFD4FA591A4
:1036B000B4919FB7F894611104C08C913095382370
:1036C00002C0EC913E2B3C939FBF0895CF93DF93B4
:1036D00090E0FC01EA5CFD4F2491FC01EE5DFD4FA2
:1036E0008491882361F190E0880F991FFC01E65BCB
:1036F000FD4FC591D491FC01E85EFD4FA591B491B9
:10370000611109C09FB7F89488812095822388832E
:10371000EC912E230BC0623061F49FB7F89488813E
:10372000322F309583238883EC912E2B2C939FBFCF
:1037300006C08FB7F894E8812E2B28838FBFDF91C6
:10374000CF9108958F929F92AF92BF92CF92DF92C6
:10375000EF92FF926B017C010E940D1A4B015C01FC
:10376000C114D104E104F104F1F00E940D1ADC014E
:10377000CB0188199909AA09BB09883E9340A10584
:10378000B10570F321E0C21AD108E108F10888EE12
:10379000880E83E0981EA11CB11CC114D104E10461
:1037A000F10419F7DDCFFF90EF90DF90CF90BF903D
:1037B000AF909F908F9008952FB7F89460914A072B
:1037C00070914B0780914C0790914D072FBF089542
:1037D0001F920F920FB60F9211242F933F938F9346
:1037E0009F93AF93BF9380914A0790914B07A0910D
:1037F0004C07B0914D073091490723E0230F2D3737
:1038000020F40196A11DB11D05C026E8230F0296E4
:10381000A11DB11D2093490780934A0790934B0740
:10382000A0934C07B0934D0780914E0790914F079E
:10383000A0915007B09151070196A11DB11D809331
:103840004E0790934F07A0935007B0935107BF9135
:10385000AF919F918F913F912F910F900FBE0F903D
:103860001F901895CF93DF9385E097E00E94C210D8
:103870008BE097E00E94C210C5E2D1E0D09312071E
:10388000C093110781E197E00E94B814D0932E07EE
:10389000C0932D078DE297E0DF91CF910C94B8147F
:1038A000CF93DF93CDB7DEB7E3970FB6F894DEBFC3
:1038B0000FBECDBF789484B5826084BD84B581602D
:1038C00084BD85B5826085BD85B5816085BD8091EB
:1038D0006E00816080936E00109281008091810063
:1038E000826080938100809181008160809381005B
:1038F000809180008160809380008091B10084601D
:103900008093B1008091B00081608093B00080917D
:103910007A00846080937A0080917A00826080933C
:103920007A0080917A00816080937A0080917A0099
:10393000806880937A001092C100E0910706F091B0
:10394000080682E08083E0910306F091040610826D
:10395000E0910506F09106068FEC808310920F0629
:10396000E0910B06F0910C0686E08083E091090659
:10397000F0910A06808180618083E0910906F091D0
:103980000A06808188608083E0910906F0910A062A
:10399000808180688083E0910906F0910A06808129
:1039A0008F7D808340E052EC61E070E081E197E040
:1039B0000E94EF1861E871E081E197E00E948911AF
:1039C00062E370E08BE097E00E940E1065E971E021
:1039D00087EF95E00E94891140E855E260E070E0D1
:1039E0008DE297E00E94EF181092C2021092C1027D
:1039F0001092D2031092F4031092D00311E01093AE
:103A0000CF031092AA0361E082E10E94191B61E0DA
:103A100083E10E94191B8091B9008E7F8093B900C9
:103A20008091B9008D7F8093B90088E48093B800BD
:103A300085E48093BC008BEA9EE09093B60280936D
:103A4000B5028CEA9EE09093B4028093B30264E0E6
:103A50008EE00E9412121093D10388E68093F30344
:103A60001092D2031092F4036FE084E996E00E9472
:103A7000060F81E00E9451180E94DC1B6B017C0143
:103A80000E94DC1BDC01CB018C199D09AE09BF092A
:103A900084369105A105B10590F461E088E60E94A5
:103AA000AD181092C2028093C102813009F41DC189
:103AB00062E070E080E090E00E94A21BE1CF80E035
:103AC000682F677F8FE00E94121260E082E00E9400
:103AD000661B61E082E00E94191B8BE991E09093E4
:103AE00005018093040180916900836080936900DF
:103AF000E89A789468EE73E080E090E00E94A21B60
:103B000087EA91E00E944C181092AB061092A90629
:103B10001092A6061092A5061092AC0684E080933F
:103B2000A4068FEF8093C9028093C8028093C002DD
:103B30000E94DC1B8B0161E08091A4060E94661B41
:103B400080EA96E00E94B601FFB6F8948091C70221
:103B5000811127C0ECE2F2E08491E0E4F2E094917C
:103B6000E82FF0E0EE0FFF1FE65BFD4FA591B4914B
:103B7000EC91E92321F461E08AE00E94191B61E0E5
:103B80008AE00E94661B8CB580618CBD8CB5806418
:103B90008CBD61E08DE00E94661B61E08BE00E94BD
:103BA000661B8091C7028F5F8093C702FFBE83E0D0
:103BB0000E94FB0C5AE0F52E8FEF0E942502FA942A
:103BC000F110FACF60E08091A4060E94191B20E05A
:103BD00030E0A90160E080EA96E00E946102F82EE0
:103BE0008093AA0621E0821749F00E94DC1B601B2B
:103BF000710B613D774058F381E056C02AEA31E00D
:103C000040E050E068E080EA96E00E94610282FFB6
:103C100003C0F092AB0610C044E0F42E0E94BB013A
:103C20008093AA06FA94F110F9CF8A3A11F082E053
:103C30003BC082E08093AB068091AB06823021F0DE
:103C4000C12CD12C760105C0C12CD12CE12C30E443
:103C5000F32E20E030E0A90167E380EA96E00E94BD
:103C60006102A701960169E280EA96E00E94610282
:103C70008093AA06882349F00E94DC1B601B710B0D
:103C8000613D774030F388E00FC08091AB06823011
:103C900001F520E030E0A9016AE380EA96E00E94A5
:103CA0006102882341F086E08093A50680EA96E0D1
:103CB0000E94B60126C50E94BB01807C803C19F49D
:103CC00083E08093AB060E94BB010E94BB010E946F
:103CD000BB0180EA96E00E94B6018091C0028F3F4E
:103CE00049F480E00E94FB0C05C084E996E00E9444
:103CF000BD0EE6CE81E00E941E17811106C080E055
:103D00000E941E17882309F4FCC48091D0068111FB
:103D1000F8C48091C406803109F582E08093D00612
:103D20001092E2061092E3061092E4061092E50665
:103D30008091C5069091C606A0E0B0E025E0880F0E
:103D4000991FAA1FBB1F2A95D1F78093DE06909377
:103D5000DF06A093E006B093E1061FC0803209F0B1
:103D6000D0C483E08093D0064091C7065091C80626
:103D70006091C9067091CA064093E2065093E3062B
:103D80006093E4067093E5062EED36E08DEA96E04A
:103D90000E94B615882309F4B4C48DEA96E0909386
:103DA000E7068093E60681E08093CF061092D10665
:103DB0001092D2061092D3061092D4061092D50615
:103DC0001092D6061092D7061092D8061092D906F5
:103DD0001092DA061092DB061092DC061092DD06D5
:103DE0006FEB71E087EF95E00E9489116FEB71E056
:103DF00081E197E00E94891111E008E684ED282E08
:103E000082E0382E1093D1030093F3031092D20373
:103E10001092F40360E084E996E00E94060F81E0CE
:103E20000E9451180E94DC1B4B015C010E94DC1BAC
:103E3000DC01CB0188199909AA09BB0984369105CF
:103E4000A105B10508F062C067E088E60E94AD18E0
:103E50001092C2028093C102873039F062E070E0B4
:103E600080E090E00E94A21BE1CFFE0131965F014D
:103E7000812C912C84E996E00E94BD0E982F9F70B2
:103E8000F5E09F120FC084FB222720F9220F322F6A
:103E9000330F330F230F920F9E83882E881C8824A4
:103EA000881C08C082958F702AE0829F900D112493
:103EB000F50190839394FFEFAF1ABF0A27E09212A7
:103EC000D9CF2F8181E0881205C0822F90E08053E6
:103ED000984F04C0822F90E08459984F39813093D5
:103EE000F8023A813093F9023B813093FA023D8126
:103EF0003093FB023E813093FC029093FE0280934C
:103F0000FD028C818093FF02209302038091F802CE
:103F100090E0019665E070E00E942F28892B09F05F
:103F2000C6C180910A01882309F4C1C1F894609147
:103F3000C3027091C4028091C5029091C6020E9492
:103F4000892620E030E040EF50E40E94CA289B011F
:103F5000AC010E945E2820E030E040E752E40E947D
:103F6000CA2820E030E040EA50E40E94CA2860936A
:103F7000D0027093D1028093D2029093D302109218
:103F8000C3021092C4021092C5021092C60220E031
:103F900030E040EA50E40E94E8264B015C01609367
:103FA000EE027093EF028093F0029093F1020E9470
:103FB0002315BC0180E090E00E9487262B013C0184
:103FC000C090F202D090F302E090F402F090F5027B
:103FD000A70196010E94822687FF09C0C092CC02E9
:103FE000D092CD02E092CE02F092CF0208C0409271
:103FF000CC025092CD026092CE027092CF022091FC
:10400000CC023091CD024091CE025091CF02C50139
:10401000B4010E945E286093F2027093F3028093D1
:10402000F4029093F5020E943C2980E00E945B0D0F
:1040300080910801882321F12091CC023091CD029A
:104040004091CE025091CF026091F2027091F30242
:104050008091F4029091F5020E945D280E943C2913
:104060002091FA0281E0820F0E945B0D8091FA029A
:1040700090E001969093CB028093CA0210920801BF
:104080008091FA0290E001962091CA023091CB0211
:104090008217930711F01093080178948091F80229
:1040A00090E001969093F7028093F6028091FB02D4
:1040B0001F928F938091FC021F928F938091FE023A
:1040C0008F938091FD028F93E4EDF1E0FF93EF93E6
:1040D0003F922F920E94E52B64ED72E0CE01019693
:1040E0000E941F16CE0101960E943415E09103072D
:1040F000F09104070FB6F894DEBF0FBECDBF309726
:1041000009F4CBC08581882309F4C7C064ED72E04F
:1041100087EF95E00E9489114091F2025091F302DD
:104120006091F4027091F502CE0101960E94E514AF
:104130006091F802CE014C960E947D156091F902C3
:10414000CE0182960E947D156091FA02CE018E9674
:104150000E947D15BE01625D7F4FCE0188960E9450
:10416000C71061EE71E0CE0188960E947510BE0105
:104170006E5D7F4F0E948E1061EE71E00E9475109F
:10418000BE01645E7F4F0E948E1063EE71E00E945C
:104190007510BE016F5F7F4F0E948E1067EE71E059
:1041A0000E947510BC0187EF95E00E949D11CE0121
:1041B00088960E94C210CE018E960E94C210CE0137
:1041C00082960E94C210CE014C960E94C210CE016F
:1041D00001960E94C2104091F2025091F302609148
:1041E000F4027091F502CE0101960E94E5146091EF
:1041F000F802CE014C960E947D156091F902CE0125
:1042000082960E947D156091FA02CE018E960E94E0
:104210007D15BE01625D7F4FCE0188960E94C7105A
:1042200061EE71E0CE0188960E947510BE016E5D50
:104230007F4F0E948E1061EE71E00E947510BE01EA
:10424000645E7F4F0E948E1063EE71E00E947510D5
:10425000BE016F5F7F4F0E948E1067EE71E00E947B
:104260007510BC018AEE96E00E949D11CE018896E1
:104270000E94C210CE018E960E94C210CE0182967C
:104280000E94C210CE014C960E94C210CE0101962F
:104290000E94C2100E946A1506C06DEE71E087EFA1
:1042A00095E00E9489110E946A1510920A0180917E
:1042B000F80290E001962091F6023091F702821701
:1042C000930711F010930A01B090FA02BB2029F075
:1042D0008091FA02811164C15DC18091F90281303F
:1042E000B9F780910901882399F31092090180910F
:1042F000FC021F928F938091FE028F938091FD02AA
:104300008F93E4E0F2E0FF93EF9381EE92E09F93CE
:104310008F930E94E52B61EE72E0CE0101960E9420
:104320001F16CE0101960E943415E0910307F0910B
:1043300004070FB6F894DEBF0FBECDBF309709F467
:1043400087C08581882309F483C061EE72E087EF1E
:1043500095E00E9489114091F2025091F302609120
:10436000F4027091F502CE0101960E94E51460916D
:10437000FB02CE014C960E947D156DE072E0CE01ED
:1043800082960E94E110BE01645E7F4FCE0182964C
:104390000E948E1063EE71E00E947510BE016F5F87
:1043A0007F4F0E948E1067EE71E00E947510BC0175
:1043B00087EF95E00E949D11CE0182960E94C21067
:1043C000CE014C960E94C210CE0101960E94C210EE
:1043D0004091F2025091F3026091F4027091F50263
:1043E000CE0101960E94E5146091FB02CE014C962D
:1043F0000E947D156DE072E0CE0182960E94E11070
:10440000BE01645E7F4FCE0182960E948E1063EEE5
:1044100071E00E947510BE016F5F7F4F0E948E1089
:1044200067EE71E00E947510BC018AEE96E00E9472
:104430009D11CE0182960E94C210CE014C960E9420
:10444000C210CE0101960E94C2100E946A1506C0D9
:104450006DEE71E087EF95E00E9489110E946A1568
:1044600066E172E08DE297E00E94891168EC70E0ED
:1044700080E090E00E94A21B60E272E0CE01019613
:104480000E94E11065E077E0CE0101960E948E1057
:104490006AE272E00E947510BC018DE297E00E9412
:1044A0009D11CE0101960E94C21068EC70E080E080
:1044B00090E00E94A21B6091F2027091F302809141
:1044C000F4029091F5020E947029AB01BC01CE016B
:1044D00001960E94E5146DE272E0CE014C960E94B6
:1044E000E110BE016F5F7F4FCE014C960E948E108F
:1044F00061E572E00E947510BC01CE0182960E94B7
:10450000C710CE014C960E94C210CE0101960E94A7
:10451000C210BE016E5D7F4F8DE297E00E949D113B
:1045200064E670E080E090E00E94A21B6AE18DE208
:1045300097E00E94990F64E572E08DE297E00E9497
:10454000741168EC70E080E090E00E94A21BBE0154
:104550006E5D7F4F87EF95E00E949D1167E572E0E9
:1045600087EF95E00E948911CE0182960E94C210C9
:104570001092F2021092F3021092F4021092F502DD
:1045800060E070E08B2D0E945B0DB39499E1B9124D
:10459000F7CF9ECE8091F902813011F0109309017E
:1045A00086E692E00E944C188091FB020E94061B56
:1045B0008EE692E00E944C188091FC020E94061B3D
:1045C0008EE692E00E944C188090FD029090FE02D0
:1045D000092C000CAA08BB08B7FE0EC06DE287EFDD
:1045E00095E00E94000E66277727CB0168197909AC
:1045F0008A099B094AE003C04AE0C501B4010E9450
:10460000CA1980E792E00E944C188091FA020E9439
:10461000061B81EE91E00E944C188091F9020E94E5
:10462000061B85EA91E00E944C188091F8020E94D6
:10463000061B8AE792E00E944C186091EE0270918E
:10464000EF028091F0029091F10242E00E94321A52
:1046500083E892E00E944C186091F2027091F3029C
:104660008091F4029091F50242E00E94321A64E5D2
:1046700072E087EF95E00E94741187EF95E00E9449
:10468000C80D892BF1F067EF75E0CE0101960E940D
:104690009E19BE016F5F7F4F87EF95E00E949D11CD
:1046A000BE016F5F7F4F81E197E00E949D116AE03C
:1046B00070E080E090E00E94A21BCE0101960E9473
:1046C000C21081E197E00E945E0F892BB9F061E191
:1046D00077E0CE0101960E949E19BE016F5F7F4F69
:1046E00087EF95E00E949D116AE070E080E090E025
:1046F0000E94A21BCE0101960E94C2100E946F0E62
:1047000081CB6AE872E087EF95E00E948911FFCFC4
:10471000CF92DF92EF92FF92E7EFF5E013821282E1
:1047200088EEC82E83E0D82EE12CF12CC482D582ED
:10473000E682F78287E391E09183808385EC90E0C5
:104740009587848784EC90E09787868780EC90E05B
:10475000918B808B81EC90E0938B828B82EC90E04C
:10476000958B848B86EC90E0978B868B118E128EC6
:10477000138E148EE4E9F6E013821282C482D5828D
:10478000E682F78289E491E091838083E0EAF6E0B3
:10479000158216821186138682E090E0A0E0B0E0D8
:1047A00085879687A787B08B14A216A615A68BE5DA
:1047B00091E094A783A710AA69E08DE297E00E9498
:1047C00027146BE081E197E00E94271466E572E010
:1047D0008BE097E00E94E1106BE071E085E097E0EC
:1047E0000E94E110EAEEF6E013821282C482D582C2
:1047F000E682F78283E791E091838083128E118EA7
:104800001486FF90EF90DF90CF900895EF920F9372
:104810001F93CF93DF93E80147FD02C034E001C04E
:1048200034E1042E000C550B57FF03C05195419500
:104830005109E32E022F242FAE010E944024CE0105
:10484000DF91CF911F910F91EF900895BB27FB014E
:104850005527AA27880F991FAA1FA41710F0A41B79
:1048600083955051B9F7A05DAA3308F0A95DA193D3
:10487000009779F7B111B1931192CB010C94722684
:10488000A9E0B0E0E6E4F4E20C94CD276A01122F2F
:10489000B02E2BE3201720F0FF24F394F00E02C07B
:1048A0002CE3F22E0F2D27E0AE014F5F5F4F0E94E9
:1048B0009A25BC014981842F8970813031F0E1FC57
:1048C00006C0E0FE06C090E205C09DE203C09BE288
:1048D00001C090E05E2D507143FF3CC0911102C0B9
:1048E00083E001C084E0811718F4212F281B01C048
:1048F00020E051110BC0F601822F30E2882319F01D
:1049000031938150FBCFC20ED11C20E0992329F0B6
:10491000D6019C93F60131966F01C6010396E2FE23
:104920000AC03EE4D6013C9341E411964C931197A2
:1049300012963C9306C03EE6F601308341E6418381
:104940003283FC01322F40E2332309F442C0419309
:104950003150FACF42FF44C0911102C083E001C040
:1049600084E0811718F4212F281B01C020E0511189
:104970000BC0F601822F30E2882319F03193815069
:10498000FBCFC20ED11C20E0992329F0D6019C93C5
:10499000F60131966F01C6010396E2FE0BC039E4C1
:1049A000D6013C933EE411963C93119736E412965F
:1049B0003C9307C039E6F60130833EE6318336E6A4
:1049C0003283FC01322F40E2332319F041933150FE
:1049D000FBCFFC01E20FF11D10828EEF9FEFA6C00E
:1049E00021E030E0911102C020E030E016161706F9
:1049F0001CF4FB01319602C0E1E0F0E02E0F3F1FF6
:104A0000BB2021F0EB2DF0E0319602C0E0E0F0E0B9
:104A10002E0F3F1FE12FF0E02E173F071CF4121B53
:104A2000212F01C020E08E2D887159F4F601822FCC
:104A300030E2882319F031938150FBCFC20ED11C94
:104A400020E0992329F0D6019C93F60131966F015D
:104A500051110BC0F601822F90E3882319F0919336
:104A60008150FBCFC20ED11C20E00F2D060F9A8182
:104A7000342F307144FF03C0913309F401501016F4
:104A800024F4093018F008E001C001E0AB0177FF21
:104A900002C040E050E0FB01E41BF50BA1E0B0E0F8
:104AA000AC0FBD1FEA0FFB1F8EE2A82E4B01801A30
:104AB00091080B2D10E01195019511094F3FBFEFA3
:104AC0005B0721F4D601AC9211966D01641775074E
:104AD0002CF08416950614F4818101C080E34150C6
:104AE00051093196D60111967D014017510724F0E6
:104AF000D6018C936701E2CF6417750739F49633BA
:104B000020F4953319F4311101C081E3F60180835B
:104B1000F701822F90E2882319F091938150FBCF07
:104B2000F701E20FF11D108280E090E02996ECE0A1
:104B30000C94E927283008F027E03327DA01990F91
:104B4000311D87FD916000966105710539F4326071
:104B50002E5F3D9330E32A95E1F708959F3F30F0B3
:104B600080387105610509F03C5F3C5F3D939130F1
:104B700008F08068911DDF93CF931F930F93FF92EE
:104B8000EF92192F987F9695E92F96959695E90FB4
:104B9000FF27EE53FF4F99273327EE24FF24A70169
:104BA000E70105900894079428F4360FE71EF81ED5
:104BB000491F511D660F771F881F991F0694A1F783
:104BC0000590079428F4E70EF81E491F561FC11DD3
:104BD000770F881F991F661F0694A1F70590079409
:104BE00028F4F80E491F561FC71FD11D880F991FA3
:104BF000661F771F0694A1F70590079420F4490FCC
:104C0000561FC71FD81F990F661F771F881F06944E
:104C1000A9F784911095177041F0D695C7955795CF
:104C20004795F794E7941A95C1F7E8E6F0E06894A1
:104C30001590159135916591959105907FE2739549
:104C4000E118F10A430B560BC90BD009C0F7E10C70
:104C5000F11E431F561FC91FD01D7EF4703311F47F
:104C60008A95E6CFE894015030F0080F0AF4002747
:104C7000021708F4202F2395022F7A3328F079E3C6
:104C80007D932A95E9F710C07D932A9589F60694BD
:104C900097956795379517951794E118F10A430B87
:104CA000560BC90BD00998F023957E9173957A33F2
:104CB00008F070E37C932013B8F77E9170617D93C8
:104CC00030F0839571E37D9370E32A95E1F7112429
:104CD000EF90FF900F911F91CF91DF91992787FD62
:104CE00090950895DC01FC01672F71917723E1F71E
:104CF000329704C07C916D9370836291AE17BF07A9
:104D0000C8F308950E94C42608F481E00895E89449
:104D100009C097FB3EF490958095709561957F4F03
:104D20008F4F9F4F9923A9F0F92F96E9BB279395B1
:104D3000F695879577956795B795F111F8CFFAF4C1
:104D4000BB0F11F460FF1BC06F5F7F4F8F4F9F4FF2
:104D500016C0882311F096E911C0772321F09EE850
:104D6000872F762F05C0662371F096E8862F70E0B6
:104D700060E02AF09A95660F771F881FDAF7880F90
:104D80009695879597F90895990F0008550FAA0BE6
:104D9000E0E8FEEF16161706E807F907C0F012164E
:104DA0001306E407F50798F0621B730B840B950B51
:104DB00039F40A2661F0232B242B252B21F40895A6
:104DC0000A2609F4A140A6958FEF811D811D089543
:104DD0000E94FB260C946C270E945E2738F00E94EC
:104DE000652720F0952311F00C9455270C945B2730
:104DF00011240C94A0270E947D2770F3959FC1F386
:104E0000950F50E0551F629FF001729FBB27F00D78
:104E1000B11D639FAA27F00DB11DAA1F649F6627CD
:104E2000B00DA11D661F829F2227B00DA11D621F1C
:104E3000739FB00DA11D621F839FA00D611D221FD6
:104E4000749F3327A00D611D231F849F600D211DBA
:104E5000822F762F6A2F11249F5750409AF0F1F03D
:104E600088234AF0EE0FFF1FBB1F661F771F881FA6
:104E700091505040A9F79E3F510580F00C94552762
:104E80000C94A0275F3FE4F3983ED4F38695779582
:104E90006795B795F795E7959F5FC1F7FE2B880F4C
:104EA000911D9695879597F9089597F99F6780E8E2
:104EB00070E060E008959FEF80EC089500240A946C
:104EC0001616170618060906089500240A941216E5
:104ED0001306140605060895092E0394000C11F418
:104EE000882352F0BB0F40F4BF2B11F460FF04C0C5
:104EF0006F5F7F4F8F4F9F4F089557FD9058440F1E
:104F0000551F59F05F3F71F04795880F97FB991F28
:104F100061F09F3F79F087950895121613061406E5
:104F2000551FF2CF4695F1DF08C016161706180672
:104F3000991FF1CF86957105610508940895E8944D
:104F4000BB2766277727CB0197F90895F999FECFFC
:104F500092BD81BDF89A992780B50895262FF999B9
:104F6000FECF1FBA92BD81BD20BD0FB6F894FA9A4C
:104F7000F99A0FBE019608950E942028A59F900DD2
:104F8000B49F900DA49F800D911D112408952F9220
:104F90003F924F925F926F927F928F929F92AF92C9
:104FA000BF92CF92DF92EF92FF920F931F93CF9316
:104FB000DF93CDB7DEB7CA1BDB0B0FB6F894DEBFAD
:104FC0000FBECDBF09942A88398848885F846E84D3
:104FD0007D848C849B84AA84B984C884DF80EE801D
:104FE000FD800C811B81AA81B981CE0FD11D0FB626
:104FF000F894DEBF0FBECDBFED010895A1E21A2ED9
:10500000AA1BBB1BFD010DC0AA1FBB1FEE1FFF1F6C
:10501000A217B307E407F50720F0A21BB30BE40BBC
:10502000F50B661F771F881F991F1A9469F7609503
:105030007095809590959B01AC01BD01CF010895BD
:10504000A29FB001B39FC001A39F700D811D1124C9
:10505000911DB29F700D811D1124911D089597FB24
:10506000072E16F4009407D077FD09D00E9443283C
:1050700007FC05D03EF4909581959F4F089570955B
:1050800061957F4F0895AA1BBB1B51E107C0AA1F62
:10509000BB1FA617B70710F0A61BB70B881F991FD9
:1050A0005A95A9F780959095BC01CD010895EE0F12
:1050B000FF1F0590F491E02D09945058BB27AA27B3
:1050C0000E9475280C946C270E945E2738F00E947D
:1050D000652720F039F49F3F19F426F40C945B27E0
:1050E0000EF4E095E7FB0C945527E92F0E947D27ED
:1050F00058F3BA17620773078407950720F079F40D
:10510000A6F50C949F270EF4E0950B2EBA2FA02D38
:105110000B01B90190010C01CA01A0011124FF2764
:10512000591B99F0593F50F4503E68F11A16F0405F
:10513000A22F232F342F4427585FF3CF469537955E
:105140002795A795F0405395C9F77EF41F16BA0B23
:10515000620B730B840BBAF09150A1F0FF0FBB1FD1
:10516000661F771F881FC2F70EC0BA0F621F731F1A
:10517000841F48F4879577956795B795F7959E3F77
:1051800008F0B0CF9395880F08F09927EE0F979508
:10519000879508950E94DE280C946C270E9465274D
:1051A00058F00E945E2740F029F45F3F29F00C94EC
:1051B000552751110C94A0270C945B270E947D2742
:1051C00068F39923B1F3552391F3951B550BBB2736
:1051D000AA2762177307840738F09F5F5F4F220F7B
:1051E000331F441FAA1FA9F335D00E2E3AF0E0E872
:1051F00032D091505040E695001CCAF72BD0FE2FBC
:1052000029D0660F771F881FBB1F2617370748074F
:10521000AB07B0E809F0BB0B802DBF01FF27935807
:105220005F4F3AF09E3F510578F00C9455270C944F
:10523000A0275F3FE4F3983ED4F386957795679572
:10524000B795F7959F5FC9F7880F911D969587953C
:1052500097F90895E1E0660F771F881FBB1F62175B
:1052600073078407BA0720F0621B730B840BBA0B19
:10527000EE1F88F7E09508950E94852788F09F57D4
:1052800098F0B92F9927B751B0F0E1F0660F771F6A
:10529000881F991F1AF0BA95C9F714C0B13091F060
:1052A0000E949F27B1E008950C949F27672F782FC5
:1052B0008827B85F39F0B93FCCF386957795679525
:1052C000B395D9F73EF490958095709561957F4F91
:1052D0008F4F9F4F08950E94C42608F48FEF0895C2
:1052E0000E948527E8F09E37E8F09639B8F49E389A
:1052F00048F4672F782F8827985FF9CF86957795A0
:10530000679593959539D0F3B62FB1706B0F711DDA
:10531000811D20F487957795679593950C9499292D
:105320000C94B4290C94A0270E94C426880B990BD6
:105330000895882371F4772321F09850872B762FD6
:1053400007C0662311F499270DC09051862B70E099
:1053500060E02AF09A95660F771F881FDAF7880FAA
:105360009695879597F908959F3F31F0915020F4D5
:10537000879577956795B795880F911D9695879531
:1053800097F908950F931F93CF93DF938230910580
:1053900010F482E090E0E0915407F091550720E08E
:1053A00030E0A0E0B0E0309719F1408151810281F6
:1053B000138148175907C8F08417950769F41097A7
:1053C00031F012960C93129713961C9327C00093FA
:1053D00054071093550722C02115310519F04217C3
:1053E000530718F49A01BD01EF01DF01F801DBCF8B
:1053F00021153105F9F0281B390B2430310580F4D3
:105400008A819B816115710521F0FB019383828361
:1054100004C09093550780935407FE01329644C010
:10542000FE01E20FF31F81939193225031093983DA
:1054300028833AC02091520730915307232B41F41F
:1054400020911D0130911E01309353072093520784
:1054500020911B0130911C012115310541F42DB71C
:105460003EB740911F0150912001241B350BE09164
:105470005207F0915307E217F307A0F42E1B3F0BDE
:105480002817390778F0AC014E5F5F4F24173507B6
:1054900048F04E0F5F1F509353074093520781937C
:1054A000919302C0E0E0F0E0CF01DF91CF911F9136
:1054B0000F910895CF93DF93009709F481C0FC0109
:1054C000329713821282A0915407B091550710971A
:1054D00081F420813181820F931F209152073091F6
:1054E00053072817390751F5F0935307E0935207F4
:1054F00067C0ED0120E030E0CE17DF0740F44A81BD
:105500005B819E0141155105F1F0EA01F5CFD3838E
:10551000C28340815181840F951FC817D90759F460
:1055200088819981840F951F0296918380838A8157
:105530009B81938382832115310529F4F0935507CC
:10554000E09354073DC0E901FB83EA8349915991F7
:10555000C40FD51FEC17FD0761F480819181840F82
:10556000951F0296E90199838883828193819B83A9
:105570008A83E0E0F0E012968D919C91139700975A
:1055800019F0FD01DC01F7CF8D919C9111979D01E0
:105590002E5F3F4F820F931F209152073091530788
:1055A0002817390769F4309729F41092550710929B
:1055B000540702C013821282B0935307A09352077C
:1055C000DF91CF910895A0E0B0E0E9EEFAE20C940B
:1055D000CB27EC01009721F4CB010E94C229B4C073
:1055E000FC01E60FF71F9C0122503109E217F30777
:1055F00008F4A8C0D9010D911C911197061717073F
:10560000B0F00530110508F49BC0C8010497861757
:10561000970708F495C002501109061B170B019358
:1056200011936D937C93CF010E945A2A89C05B012C
:10563000A01AB10A4C01800E911EA0915407B0919E
:105640005507612C712CE12CF12C109709F446C000
:105650008D919C911197A815B905B1F56C0142E0A7
:10566000C40ED11CCA14DB0478F14C018A189B08C3
:10567000640142E0C40ED11C1296BC90129713969E
:10568000AC91B5E0CB16D10440F0B282A3839182F5
:105690008082D9016D937C9309C00E5F1F4F800FEC
:1056A000911FF90191838083EB2DFA2FE114F1040E
:1056B00031F0D7011396FC93EE93129741C0F0930B
:1056C0005507E09354073CC06816790608F43C017E
:1056D0007D0112960D90BC91A02DB7CF80915207FD
:1056E0009091530788169906E1F466167706C8F478
:1056F00080911B0190911C01009741F48DB79EB7DA
:1057000040911F0150912001841B950BE817F90768
:10571000C8F4F0935307E0935207F9017183608353
:105720000FC0CB010E94C2297C01009759F0A8014B
:10573000BE010E94BB2BCE010E945A2AC70104C0A1
:10574000CE0102C080E090E0CDB7DEB7EEE00C9471
:10575000E72781E090E0F8940C94982EFB01DC019F
:1057600004C08D910190801921F441505040C8F738
:10577000881B990B0895FB01DC0102C001900D927A
:1057800041505040D8F70895FC018191861721F0CF
:105790008823D9F7992708953197CF010895FB0100
:1057A000DC0101900D920020E1F70895FB01DC017E
:1057B0004150504048F001900D920020C9F701C0BF
:1057C0001D9241505040E0F70895AEE0B0E0EBEE9E
:1057D000FBE20C94D5270D891E8986E08C831A8301
:1057E00009838FEF9FE79E838D83AE01475E5F4FF6
:1057F0006F89788DCE0101960E94072CEF81F88584
:10580000E00FF11F10822E96E4E00C94F127ABE03C
:10581000B0E0EDE0FCE20C94C7276C017B018A014B
:10582000FC0117821682838181FFCCC1CE010196D3
:105830003C01F6019381F70193FD859193FF8191DE
:105840007F01882309F4BAC1853239F493FD85912B
:1058500093FF81917F01853229F4B60190E00E9487
:10586000FE2DE7CF912C212C312CFFE1F315D8F040
:105870008B3279F038F4803279F08332A1F4232D21
:1058800020611DC08D3261F0803369F4232D2160C9
:1058900016C0832D8260382EE32DE4603E2E2AC090
:1058A000F32DF8601DC037FC2DC020ED280F2A30E5
:1058B00040F08E32B9F436FC81C1232D2064322EA3
:1058C00019C036FE06C08AE0989E200D1124922E43
:1058D00011C0EAE02E9E200D1124222EF32DF0623D
:1058E0003F2E08C08C3621F4832D8068382E02C0EC
:1058F000883641F4F70193FD859193FF81917F01F3
:105900008111B3CF982F9F7D9554933028F40C5F6D
:105910001F4F9FE399830DC0833631F0833771F0B9
:10592000833509F059C021C0F801808189830E5F59
:105930001F4F88248394912C530113C02801F2E057
:105940004F0E511CF801A080B18036FE03C0692DB6
:1059500070E002C06FEF7FEFC5010E94F32D4C0194
:105960008201F32DFF773F2E16C0280122E0420E60
:10597000511CF801A080B18036FE03C0692D70E093
:1059800002C06FEF7FEFC5010E94E82D4C01F32D9F
:10599000F0683F2E820133FC1BC0822D90E08816F8
:1059A0009906B0F4B60180E290E00E94FE2D2A94A0
:1059B000F4CFF50137FC859137FE81915F01B60187
:1059C00090E00E94FE2D21102A9421E0821A910875
:1059D0008114910471F7E8C0843611F0893641F5DD
:1059E000F80137FE07C060817181828193810C5F6D
:1059F0001F4F08C060817181072E000C880B990B26
:105A00000E5F1F4FF32DFF763F2E97FF09C0909535
:105A10008095709561957F4F8F4F9F4FF0683F2E17
:105A20002AE030E0A3010E943A2E882E861845C055
:105A3000853731F4232D2F7EB22E2AE030E025C0A9
:105A4000932D997FB92E8F36C1F018F4883579F0EF
:105A5000B5C0803719F0883721F0B0C0E92FE06178
:105A6000BE2EB4FE0DC0FB2DF460BF2E09C034FE67
:105A70000AC0292F2660B22E06C028E030E005C0FB
:105A800020E130E002C020E132E0F801B7FE07C0BB
:105A900060817181828193810C5F1F4F06C060819C
:105AA000718180E090E00E5F1F4FA3010E943A2EAB
:105AB000882E8618FB2DFF773F2E36FE0DC0232D36
:105AC0002E7FA22E891458F434FE0BC032FC09C07C
:105AD000832D8E7EA82E05C0B82CA32C03C0B82C15
